:020000040800F2
:10000000C8040020C50100087F130008B5120008CD
:100010007D130008D1020008BD1600080000000092
:100020000000000000000000000000008313000832
:1000300085030008000000008113000885130008F4
:10004000DF010008DF010008DF010008DF01000810
:10005000DF010008DF010008DF010008DF01000800
:10006000DF010008DF010008DF010008DF010008F0
:10007000DF010008DF010008DF010008DF010008E0
:10008000DF010008DF010008DF010008DF010008D0
:10009000DF010008DF010008DF010008DF010008C0
:1000A000DF010008DF010008DF010008DF010008B0
:1000B000DF010008DF010008DF010008DF010008A0
:1000C000DF010008DF010008DF010008DF01000890
:1000D000DF010008DF010008DF010008DF01000880
:1000E000DF010008DF010008DF010008DF01000870
:1000F000DF010008DF010008DF010008DF01000860
:10010000DF010008DF010008DF010008DF0100084F
:10011000DF010008DF010008DF010008DF0100083F
:10012000DF010008DF010008DF010008DF0100082F
:10013000DF010008DF010008DF010008DF0100081F
:10014000DF010008DF010008DF010008DF0100080F
:10015000DF010008DF010008D5020008DF01000808
:10016000DF010008DF010008DF010008DF010008EF
:10017000DF010008DF010008DF01000800000000C7
:10018000DF010008DF010008DF010008DF010008CF
:10019000DF010008DF010008DF010008DF010008BF
:1001A000DF010008DF010008DF010008DFF810D0E0
:1001B00000F07CF80048004749170008AFF30080C2
:1001C000C80400200648804706480047FEE7FEE7CF
:1001D000FEE7FEE7FEE7FEE7FEE7FEE7FEE7FEE7F7
:1001E00029140008AD0100082DE9F05F0546002044
:1001F00092469B4688460646814640241BE0284698
:1002000041464746224600F041F853465A46C01A36
:10021000914110D311461846224600F028F82D1AB5
:1002200067EB01084F4622460120002100F01FF82D
:1002300017EB00094E41201EA4F10104DFDC484603
:1002400031462A464346BDE8F09FD2B201E000F8AD
:10025000012B491EFBD270470022F6E710B513466A
:100260000A4604461946FFF7F0FF204610BD202A33
:1002700004DB203A00FA02F1002070479140C2F1FD
:10028000200320FA03F3194390407047202A04DB2F
:10029000203A21FA02F00021704721FA02F3D040FF
:1002A000C2F120029140084319467047064C074DA1
:1002B00006E0E06840F0010394E807009847103436
:1002C000AC42F6D3FFF776FF0018000820180008AC
:1002D000FEE70000014800F089B80000640000203B
:1002E00001681823CAB2103AB2FBF3F2054B6FF360
:1002F0000901032A9B5CC36500D9091D8165084675
:1003000070470000E017000810B5014600208B6917
:100310008A6A4FF0C07453B1B3F5005F15D072B163
:10032000012A0CD0022A0AD0032A09D104E01AB10A
:10033000012A06D0022A03D1C96AC90100D50120C9
:1003400010BDC96AA142FAD010BD002AF7D0012A17
:10035000F2D0022AF3D0032AF3D010BD30B50468DE
:10036000256825F480252560046863608368402B38
:10037000036803D099600068C26030BD9A6000686D
:10038000C16030BD704772B6FEE770B504002BD077
:1003900094F83500022826D02068016821F0010178
:1003A0000160206800250560206845602068856040
:1003B0002068C560206805612168212048612046C9
:1003C000FFF78EFFE56325646564A564E564256534
:1003D00094F85C203F2191408160656584F8355038
:1003E00084F83450002070BD012070BD2DE9F84321
:1003F00004464FF00009CDF8009063484FF41651C1
:10040000A56D0068B0FBF1F72E6894F85C10082029
:1004100000FA01F131420FD021680A6852070BD56A
:100420000A6822F004020A6094F85C108840A86010
:10043000606D40F00100606594F85C104FF00108B9
:1004400008FA01F0304208D021684969090604D54C
:10045000A860606D40F00200606594F85C100420B4
:100460008840304208D021680968890704D5A8600F
:10047000606D40F00400606594F85C1010208840C6
:10048000304218D021680968090714D5A86020688F
:100490000168490304D50068000308D5A16C07E092
:1004A0000168C90503D4016821F008010160216CCD
:1004B00009B12046884794F85C10202088403042DB
:1004C00031D021680968C9062DD5A86094F8350097
:1004D00005282068016806D0490347D50068000355
:1004E0001DD4616C1CE021F0160101602068416997
:1004F00021F080014161206C08B9A06C20B1206816
:10050000016821F00801016094F85C103F208840E8
:10051000A86084F8358084F83490216D1FE0E16B89
:1005200009B120468847606D00282BD0606DC00758
:1005300014D0052084F835002068016821F00101FD
:1005400001600098401C0090B84203D82068006801
:10055000C007F6D184F8358084F83490E16C002926
:1005600010D001B02046BDE8F04308470168C90536
:10057000D5D4016821F01001016084F8358084F839
:100580003490CCE7BDE8F8830C0000202DE9F04161
:10059000044600F0D7F906465CB1022084F8350025
:1005A000002584F834502068016821F001010160C1
:1005B0000DE00120BDE8F08100F0C4F9801B0528A2
:1005C00005D920206065032084F83500F2E7206813
:1005D0000068C007F0D12268116820480140D4E9C2
:1005E00001031843D4E903363343184363691843BE
:1005F000A3691843E3691843236A18430843616AEF
:10060000042903D1D4E90B1319430843106020686F
:100610004069666A20F0070130460E43012704282E
:100620000CD1A06A0643E06A40B12046FFF76CFE99
:1006300020B14020606584F83570BAE720684661D3
:100640002046FFF74DFE94F85C203F2191408160E9
:10065000656584F835700020ACE700003F8010F03D
:100660002DE9F0410446866D90F8340000250128FC
:100670000DD0012084F8340094F835700020012F4B
:1006800007D084F8340002252846BDE8F081022016
:10069000FBE7022784F8357060652046FFF75EFEB1
:1006A00094F85C103F208840B0602068016841F0F9
:1006B00016010160206C20B12068016841F008013A
:1006C00001602068016841F001010160DCE7000081
:1006D00070B5044600F036F90546601C02D00448A7
:1006E0000078044400F02EF9401BA042FAD370BDFC
:1006F000000000202DE9F84FDFF8F8A100220124C6
:100700000AF1040B03254FF00F090BF1040E00BF93
:100710000B6804FA02F63340B34270D10F7907F048
:100720000307012F01D0022F16D187684FEA420834
:1007300005FA08FC27EA0C07D1F80CC00CFA08FCF3
:100740004CEA070CC0F808C04768B7430E79C6F3F7
:10075000001696403E4346600E79F643B6070AD02F
:10076000C7684FEA420C05FA0CF6B7438E6806FAE2
:100770000CF63E43C6600E7906F00306022E10D139
:10078000D60800EB8608D8F8206057074FEAD76CE8
:1007900009FA0CF7BE430F6907FA0CF73743C8F89C
:1007A000207006684FEA420C05FA0CF7BE430F7939
:1007B00007F0030707FA0CF7374307604E6816F493
:1007C000403F1CD04C4E376847F48047376036684E
:1007D00022F0030706F480460096484E07EB060C0D
:1007E000DCF8086897073F0F09FA07F826EA0806B9
:1007F000DFF80C81404503D14FF0000841E072E082
:10080000DFF80081404502D14FF0010839E0DFF800
:10081000F880404502D14FF0020832E0DFF8EC806A
:10082000404502D14FF003082BE0DFF8E48040455B
:1008300002D14FF0040824E0DFF8D880404502D10F
:100840004FF005081DE0DFF8D080404502D14FF0A1
:10085000060816E0DFF8C480404502D14FF00708D3
:100860000FE0DFF8BC80404502D14FF0080808E0F7
:10087000DFF8B080404502D14FF0090801E04FF0A9
:100880000A0808FA07F848EA0608CCF80888DAF8EF
:1008900000605746D1F804C09E435FEACC3C00D5C7
:1008A0001E433E60DBF800605F46D1F804C09E4303
:1008B0005FEA8C3C00D51E433E60DEF80060774660
:1008C000D1F804C09E435FEACC2C00D51E433E60A5
:1008D000084F0C373E68D1F804C09E435FEA8C2C69
:1008E00000D51E433E60521C102AFFF411AFBDE834
:1008F000F88F0000003C01404438024000300140C5
:10090000000002400004024000080240000C0240C7
:10091000001002400014024000180240001C024077
:100920000020024000240240426921EA02030A40FA
:1009300043EA0241816170470AB18161704709044D
:10094000FBE70000014880687047000000000020BD
:1009500002488168027811448160704700000020DD
:100960000B4810B5016841F400710160016841F461
:1009700080610160016841F480710160032000F032
:100980006FF8002000F006F800F024F8002010BDF9
:10099000003C024070B50D4D04464FF47A71287842
:1009A000B1FBF0F00A490968B1FBF0F000F044FB3C
:1009B00048B9102C07D200222146501E00F030F812
:1009C00000206C6070BD012070BD000000000020A0
:1009D0000C0000200A4808B5016841F4804101601C
:1009E000006800F4804000900548001F016841F055
:1009F00080510160006800F08050009008BD000048
:100A000044380240002809DB00F01F020121914018
:100A10004009800000F1E020C0F80011704700009C
:100A2000F0B40E4B1B680C46C3F30223C3F1070559
:100A3000042D00D90425191D072901D2002300E047
:100A4000DB1E012606FA05F1491E214099409E4011
:100A5000761E16403143F0BC00F03ABE0CED00E0CB
:100A6000064900F0070208684FF6FF03184040EA05
:100A70000220034A10430860704700000CED00E0BC
:100A80000000FA052DE9F8431748016841F080514C
:100A900001600068154F00F08050012600903E6410
:100AA000FFF750FF05464FF47A78114C05E000BF80
:100AB000FFF748FF401B40450DD86068C003F7D5DD
:100AC0007E64FFF73FFF0546464607E0FFF73AFF23
:100AD000401BB04202D90320BDE8F8836068800360
:100AE000F4D50020F8E700004038024000000E4234
:100AF000007000402DE9F0470E46050065D0DFF894
:100B00001481D8F80000F7B200F00F00B04207D20D
:100B100088F80070D8F8000000F00F00B04254D1FF
:100B200028683D4C810712D5400703D5206840F462
:100B3000E05020602878000703D5206840F460402A
:100B400020602068A96820F0F00008432060287821
:100B5000C0072DD0304968680839012812D0022812
:100B600013D0032811D00968890700292DDA2168DC
:100B700021F0030101432160FFF7E4FE814641F2C9
:100B8000883A0EE009688903EFE709688901ECE714
:100B9000FFF7D8FEA0EB0901514502D90320BDE8BB
:100BA000F0872068696800F00C00B0EB810FEFD18E
:100BB000D8F80010404601F00F01B14207D9077084
:100BC000006800F00F00B04201D00120E7E728786C
:100BD000400705D52068E96820F4E050084320600C
:100BE0002878000706D52068296920F4604040EA8B
:100BF000C100206000F038F82168084AC1F30311F1
:100C0000515CC8400649086006480068FFF7C2FE0C
:100C10000020C4E7003C024008380240E817000802
:100C20000C00002004000020044805490068096801
:100C3000044AC1F38221515CC84070470C00002077
:100C400008380240F8170008044805490068096898
:100C5000044AC1F34231515CC84070470C00002087
:100C600008380240F8170008154810B5006810F061
:100C70000C02144813D01449042A0FD0082A0ED1AC
:100C80000F4C241F2268236802F03F025B0207D545
:100C90002068C0F38810A0FB010106E0084610BDE3
:100CA0002168C1F38811A1FB00010023FFF79CFA22
:100CB0002168C1F30141491C4900B0FBF1F010BDAE
:100CC000083802400024F40040787D012DE9F84FF7
:100CD00004006ED02078DFF84C93C007A9F104051A
:100CE0004AD009F104000168C1F38101012908D04B
:100CF0000068C0F3810002280AD1D9F80000400240
:100D000006D52868800337D560680028E1D033E035
:100D10006068B0F5803F10D0B0F5A02F286810D0E3
:100D200020F480302860286820F4802028606068E3
:100D3000A8B1FFF707FE06460DE0286840F48030B2
:100D4000F4E740F480202860F7E700BFFFF7FAFDE2
:100D5000801B642873D828688003F7D50CE0FFF760
:100D6000F1FD064605E000BFFFF7ECFD801B64289F
:100D7000F0D828688003F7D42078DFF8AC828007A9
:100D80004FF0000A3ED5A748001D016811F00C0F76
:100D900008D00068C0F3810002280BD1D9F8000008
:100DA000400207D42868800716D5E068012800D1E2
:100DB00012E033E1E068B8B10120C8F80000FFF7A5
:100DC000C1FD064605E000BFFFF7BCFD801B022801
:100DD000C0D828688007F7D52868216920F0F80076
:100DE00040EAC10028600DE0C8F800A0FFF7AAFDA6
:100DF000064604E0FFF7A6FD801B02281FD82868DE
:100E00008007F7D42078000722D5864F874861698C
:100E1000703771B101210160FFF794FD064604E0CF
:100E2000FFF790FD801B022809D838688007F7D5A6
:100E30000EE0C0F800A0FFF785FD064605E082E061
:100E4000FFF780FD801B02287DD838688007F7D423
:100E50002078400768D5DFF8CCB100270BF13C0BB8
:100E6000DBF80000C0000BD4DBF8001041F080512B
:100E7000CBF80010DBF80000012700F08050009054
:100E80006B4E3068C00510D4306840F4807030601C
:100E9000FFF758FD009005E0FFF754FD0099401A58
:100EA000022850D83068C005F6D55E4EA0686C3672
:100EB00001280FD00528306810D020F001003060E4
:100EC000306820F004003060A068B8B1FFF73AFD48
:100ED00000900FE0306840F00100F4E740F00400BB
:100EE0003060F7E7FFF72EFD0099411A41F2883094
:100EF000814266D830688007F4D50EE0FFF722FD06
:100F0000009007E0FFF71EFD0099411A41F288307A
:100F1000814256D830688007F4D42FB1DBF8001036
:100F200021F08051CBF80010A069C8B33D49091DDC
:100F30000968C1F3810102294AD00228504607D02E
:100F4000C8F8600000E03CE0FFF7FCFC04463BE032
:100F50004746C8F86000FFF7F5FC064605E000BF0D
:100F6000FFF7F0FC801B02282BD828688001F7D4FB
:100F7000D4E907010843A16A2E4A490802EB01415E
:100F8000626A41EA8211084394F82C1040EA016138
:100F9000C9F8001001203866FFF7D4FC044606E0CB
:100FA0003EE000BFFFF7CEFC001B022809D82868EE
:100FB0008001F7D534E000BFFFF7C4FC001B022816
:100FC00002D90320BDE8F88F28688001F4D427E017
:100FD0000128F7D0D9F80000E26900F480019142BD
:100FE0001CD1226A00F03F01914217D147F6C0712F
:100FF000626A0140B1EB821F10D1A26A4FF0FF3349
:1010000000F4403103EB5202B1EB024F06D194F8E9
:101010002C1000F07060B0EB016F01D00120D1E71F
:101020000020CFE70438024000004742800E4742CC
:10103000007000400000FFFF10B5401EB0F1807F3F
:1010400001D3012010BD4FF0E02460610F21601733
:1010500000F03EFB0020A06107202061002010BDB1
:10106000704770B5040004D094F83D00002510B11D
:1010700006E0012070BD84F83C50204600F022F8C4
:10108000242084F83D002068C16821F40051C1602B
:10109000204600F051FA2068016921F49041016175
:1010A0002068416921F02A0141612068C16841F44A
:1010B0000051C1602564202084F83D0084F83E0082
:1010C000002070BD70B586B0064614216846FFF753
:1010D000C3F82249306888423DD121480025016883
:1010E00041F010010160006800F0100005901C48FC
:1010F0001438016841F0010101600068694600F0A0
:10110000010005904FF4C06000900220CDE9010578
:1011100003200390072004901248FFF7EBFA134CCA
:10112000114820604FF0006060604020C4E9020573
:101130000001C4E90405C001A561C4E907502046C7
:101140006562FFF722F92046FFF720FA08B1FFF7A2
:101150001AF97463A66306B070BD00000010014068
:101160004438024000000240B8640240640000209D
:101170002DE9F843044690F83D001F4616460D46FB
:1011800020284CD1C5B1BEB194F83C00012846D00E
:10119000012084F83C004FF00008C4F84080212072
:1011A00084F83D00FFF7CEFBA6848146E684A06864
:1011B000B0F5805F03D004E00120BDE8F88320692A
:1011C00028B12E465FF0000584F83C800EE0002632
:1011D000FAE78021204600F035FAA0B9AEB116F842
:1011E000010B21684860E08C401EE084E08C4B4697
:1011F0004FF0000200970028EBD14FF0400120464D
:1012000000F020FA30B10320D7E735F8020BC0F325
:101210000800E6E7202084F83D000020CDE702200A
:10122000CBE7000070B5044690F83D00202836D189
:1012300091B38AB394F83C00012830D0012084F89F
:101240003C002162A284E28400252564212084F8E8
:101250003D00636B1348D863636B13481864636B7A
:101260001248D864606B134605652668606B321DB2
:10127000FFF7F6F921686FF04000086084F83C50F1
:101280002068143050E8001F41F0800140E800124F
:10129000002AF5D1002070BDFFE70120FBE7022006
:1012A000F9E7000083140008C51400083914000889
:1012B00070477047FEE70000094808B5016841F42F
:1012C000800101600068002200F480000090114657
:1012D0004620FFF7A5FBBDE808404620FFF792BB7C
:1012E0003038024070B586B014216846FEF7B4FF6E
:1012F00012480024016841F080010160016801F09A
:1013000080010591016841F00101016000680C4E07
:1013100000F001004FF4E0550590012229463046C7
:10132000FFF70AFB01200095CDE90104694630462C
:101330000394FFF7DFF906B070BD000030380240BB
:10134000001C02400C4810B50A4901604FF4E1311D
:101350004160002181600C22C160C0E904128161FA
:10136000C161FFF77EFE002803D0BDE81040FFF703
:101370000AB810BD0010014020000020FEE7FEE783
:1013800070477047FFF7E4BA30B593B03021684634
:10139000FEF762FF14210CA8FEF75EFF204800252F
:1013A000016841F080510160006800F080501190A8
:1013B0001C48016841F4404101600068022400F4C7
:1013C0004040119001200390102004900094069456
:1013D0000820CDE90750B420CDE9090404200B9082
:1013E0006846FFF773FC08B172B6FEE7FFF74AFBE9
:1013F00008B172B6FEE70CA90F2081E831004FF466
:10140000A0500F904FF48050109005210CA8FFF7CA
:1014100071FB002801D072B6FEE713B030BD0000AA
:1014200040380240007000400248016841F47001F9
:101430000160704788ED00E070B5846B20684069FA
:1014400094F83D10C0F3C0100025212904D118B133
:10145000E584204600F062F82068406994F83E1068
:10146000C0F38010222904D118B1E585204600F090
:101470002EF8206C40F0100020642046FFF7F0FDAD
:1014800070BD10B50146806B09680968C90516D49E
:101490000021C1840168143151E8002F22F080023C
:1014A00041E80023002BF5D101680C3151E8002FF1
:1014B00042F0400241E80023002BF5D110BDFFF7B8
:1014C000F7FE10BD10B5806BFFF7F3FE10BD01688D
:1014D0000C3151E8002F22F4907241E80023002BD8
:1014E000F5D10168143151E8002F22F0010241E8E2
:1014F0000023002BF5D1016B012909D101680C31C2
:1015000051E8002F22F0100241E80023002BF5D112
:10151000202180F83E1000210163704701680C31E2
:1015200051E8002F22F0C00241E80023002BF5D142
:10153000202180F83D10704770B5044600680169AD
:10154000E26821F44051114301612169A068E26918
:1015500008436169114308432168CA6849F20C6372
:101560009A430243CA6020684169A26921F440712C
:101570001143416131492068884202D03049884294
:1015800002D1FFF761FB01E0FFF74EFBE2690023A8
:10159000192164253226B2F5004F626828D0A0FBDD
:1015A0000101930F9200FEF71FFE0146B0FBF5F01C
:1015B0006FF01802504301EB800006EB0010B0FB07
:1015C000F5F000F0F002B1FBF5F002EB0012B1FB18
:1015D000F5F06FF01803584301EB800006EB0010A4
:1015E000B0FBF5F000F00F0021681044886070BD7A
:1015F000A0FB010192185B41FEF7F6FD0146B0FB2E
:10160000F5F00201B1FBF5F06FF01803584301EB60
:10161000800006EBC000B0FBF5F000F0F80002EB34
:101620004002B1FBF5F0584301EB800006EBC0002F
:10163000B0FBF5F000F00700D6E700000010014015
:10164000001401402DE9F041984617460E46044625
:10165000069D27E0681C25D02DB1FFF773F9A0EB9C
:101660000800A8421ED920680C3050E8001F21F461
:10167000D07140E80012002AF5D12068143050E8FB
:10168000001F21F0010140E80012002AF5D12020BE
:1016900084F83D0084F83E00002084F83C000320DC
:1016A000BDE8F0812068006836EA000004D0002020
:1016B000B842CFD00020F3E70120F9E7FEE70000B1
:1016C000014A024900F023B8311700081000002039
:1016D0000907090E002804DB00F1E02080F800145F
:1016E000704700F00F0000F1E02080F8141D7047F3
:1016F00002E008C8121F08C1002AFAD170477047DB
:10170000002001E001C1121F002AFBD170472DE922
:10171000F04116460F460446002503E03946B0471F
:10172000641C6D1C20780028F8D12846BDE8F081A3
:1017300013B54FF47A73012269460248FFF718FD8A
:1017400000981CBD20000020FFF70AF9FFF71CFEDF
:10175000FFF7C8FDFFF7B0FDFFF7F4FD0EA0FFF7A0
:10176000AFFF16A0FFF7ACFF00201A4941220A5430
:10177000401C80B20A28FAD30A2216491648FFF7FD
:1017800051FD164D4FF4006421462846FFF7CCF872
:101790006420FEF79DFFF7E753544D333220444D4C
:1017A00041204D656D6F727920746F2050657269AC
:1017B00070682054657374210A00000053544D333F
:1017C0003220554152542054782054657374210AB4
:1017D000000000001400002020000020001C024037
:1017E00000061016000610160000000000000000A1
:1017F00001020304060708090000000001020304B7
:10180000201800080000002014000000F016000856
:101810003418000814000020B40400000017000869
:101820000100000010000000000000000024F4008F
:0418300000000000B4
:04000005080001AD41
:00000001FF
