:020000040800F2
:1000000040050020C50100083B110008CB0F000887
:10001000391100081B0300087913000800000000D4
:100020000000000000000000000000003F11000878
:10003000C1030008000000003D1100084111000844
:10004000DF010008DF010008DF010008DF01000810
:10005000DF010008DF010008DF010008DF01000800
:10006000DF010008DF010008DF010008DF010008F0
:10007000DF010008DF010008DF010008DF010008E0
:10008000DF010008DF010008DF010008DF010008D0
:10009000DF010008DF010008DF010008DF010008C0
:1000A000DF010008DF010008DF010008DF010008B0
:1000B000DF010008DF010008DF010008DF010008A0
:1000C000DF010008DF010008DF010008DF01000890
:1000D000DF010008DF010008DF010008DF01000880
:1000E000DF010008DF010008DF010008DF01000870
:1000F000DF010008DF010008DF010008DF01000860
:10010000DF010008DF010008DF010008DF0100084F
:10011000DF010008DF010008DF010008DF0100083F
:10012000DF010008DF010008DF010008DF0100082F
:10013000DF010008DF010008DF010008DF0100081F
:10014000DF010008DF010008DF010008DF0100080F
:10015000DF010008DF010008DF010008DF010008FF
:10016000DF010008DF010008DF010008DF010008EF
:10017000DF010008DF010008DF01000800000000C7
:10018000DF010008DF010008DF010008DF010008CF
:10019000DF010008DF010008DF010008DF010008BF
:1001A000DF010008DF010008DF010008DFF810D0E0
:1001B00000F092F80048004749150008AFF30080AE
:1001C000400500200648804706480047FEE7FEE756
:1001D000FEE7FEE7FEE7FEE7FEE7FEE7FEE7FEE7F7
:1001E000E5110008AD0100082DE9F05F054600208B
:1001F00092469B4688460646814640241BE0284698
:1002000041464746224600F057F853465A46C01A20
:10021000914110D311461846224600F03EF82D1A9F
:1002200067EB01084F4622460120002100F035F817
:1002300017EB00094E41201EA4F10104DFDC484603
:1002400031462A464346BDE8F09FD2B201E000F8AD
:10025000012B491EFBD270470022F6E710B513466A
:100260000A4604461946FFF7F0FF204610BD30B598
:100270000B46014600202022012409E021FA02F564
:100280009D4205D303FA02F5491B04FA02F52844FE
:10029000151EA2F10102F1DC30BD202A04DB203A58
:1002A00000FA02F1002070479140C2F1200320FAC9
:1002B00003F3194390407047202A04DB203A21FAC7
:1002C00002F00021704721FA02F3D040C2F120026F
:1002D0009140084319467047064C074D06E0E06818
:1002E00040F0010394E8070098471034AC42F6D37D
:1002F000FFF760FF741700089417000810B507E0B7
:1003000003680C68A34201D0002010BD001D091D28
:10031000521E92B2F4D2012010BDFEE701681823EC
:10032000CAB2103AB2FBF3F2054B6FF30901032A8C
:100330009B5CC36500D9091D8165084670470000B4
:100340005417000810B5014600208B698A6A4FF0E7
:10035000C07453B1B3F5005F15D072B1012A0CD04F
:10036000022A0AD0032A09D104E01AB1012A06D0D0
:10037000022A03D1C96AC90100D5012010BDC96A8A
:10038000A142FAD010BD002AF7D0012AF2D0022AE9
:10039000F3D0032AF3D010BD30B50468256825F4E6
:1003A00080252560046863608368402B036803D060
:1003B00099600068C26030BD9A600068C16030BD5D
:1003C000704772B6FEE700002DE9F041044600F0E8
:1003D000BBF906465CB1022084F83500002584F89C
:1003E00034502068016821F0010101600DE0012016
:1003F000BDE8F08100F0A8F9801B052805D9202070
:100400006065032084F83500F2E720680068C007C3
:10041000F0D12268116820480140D4E90103184353
:10042000D4E903363343184363691843A369184377
:10043000E3691843236A18430843616A042903D116
:10044000D4E90B1319430843106020684069666AB9
:1004500020F0070130460E43012704280CD1A06A82
:100460000643E06A40B12046FFF76CFF20B1402010
:10047000606584F83570BAE7206846612046FFF76A
:100480004DFF94F85C203F2191408160656584F8C0
:1004900035700020ACE700003F8010F070B50446D6
:1004A00090F83400002501280CD0012084F8340095
:1004B00094F835600020012E06D084F8340002251F
:1004C000284670BD022070BD022684F83560606544
:1004D0002046FFF761FF2068016841F001010160DB
:1004E000EEE7000070B5044600F02EF90546601CEA
:1004F00002D004480078044400F026F9401BA042D2
:10050000FAD370BD040000202DE9F84FDFF8F8A100
:10051000002201240AF1040B03254FF00F090BF10F
:10052000040E00BF0B6804FA02F63340B34270D1E8
:100530000F7907F00307012F01D0022F16D187682A
:100540004FEA420805FA08FC27EA0C07D1F80CC06C
:100550000CFA08FC4CEA070CC0F808C04768B7431F
:100560000E79C6F3001696403E4346600E79F64378
:10057000B6070AD0C7684FEA420C05FA0CF6B74333
:100580008E6806FA0CF63E43C6600E7906F0030646
:10059000022E10D1D60800EB8608D8F82060570745
:1005A0004FEAD76C09FA0CF7BE430F6907FA0CF74C
:1005B0003743C8F8207006684FEA420C05FA0CF77A
:1005C000BE430F7907F0030707FA0CF737430760BC
:1005D0004E6816F4403F1CD04C4E376847F48047B5
:1005E0003760366822F0030706F480460096484ECE
:1005F00007EB060CDCF8086897073F0F09FA07F8C5
:1006000026EA0806DFF80C81404503D14FF00008C8
:1006100041E072E0DFF80081404502D14FF001086F
:1006200039E0DFF8F880404502D14FF0020832E0AF
:10063000DFF8EC80404502D14FF003082BE0DFF8F3
:10064000E480404502D14FF0040824E0DFF8D88070
:10065000404502D14FF005081DE0DFF8D08040454D
:1006600002D14FF0060816E0DFF8C480404502D101
:100670004FF007080FE0DFF8BC80404502D14FF093
:10068000080808E0DFF8B080404502D14FF00908C3
:1006900001E04FF00A0808FA07F848EA0608CCF823
:1006A0000888DAF800605746D1F804C09E435FEA34
:1006B000CC3C00D51E433E60DBF800605F46D1F8BD
:1006C00004C09E435FEA8C3C00D51E433E60DEF8CA
:1006D00000607746D1F804C09E435FEACC2C00D579
:1006E0001E433E60084F0C373E68D1F804C09E435D
:1006F0005FEA8C2C00D51E433E60521C102AFFF48A
:1007000011AFBDE8F88F0000003C014044380240C2
:100710000030014000000240000402400008024096
:10072000000C024000100240001402400018024079
:10073000001C024000200240002402400AB18161F6
:1007400070470904FBE7000001488068704700001B
:1007500004000020024881680278114481607047DB
:10076000040000200B4810B5016841F400710160DD
:10077000016841F480610160016841F480710160A9
:10078000032000F061F8002000F006F800F024F8E3
:10079000002010BD003C024070B50D4D04464FF4E2
:1007A0007A712878B1FBF0F00A490968B1FBF0F0E2
:1007B00000F036FB48B9102C07D200222146501E0B
:1007C00000F022F800206C6070BD012070BD0000B8
:1007D00004000020100000200A4808B5016841F418
:1007E00080410160006800F4804000900548001FCF
:1007F000016841F080510160006800F08050009075
:1008000008BD000044380240F0B40E4B1B680C4693
:10081000C3F30223C3F10705042D00D90425191DD4
:10082000072901D2002300E0DB1E012606FA05F1AC
:10083000491E214099409E40761E16403143F0BC2F
:1008400000F0ACBD0CED00E0064900F007020868BE
:100850004FF6FF03184040EA0220034A10430860A5
:10086000704700000CED00E00000FA052DE9F843A8
:100870001748016841F0805101600068154F00F091
:100880008050012600903E64FFF75EFF05464FF45E
:100890007A78114C05E000BFFFF756FF401B40453A
:1008A0000DD86068C003F7D57E64FFF74DFF05469D
:1008B000464607E0FFF748FF401BB04202D903203D
:1008C000BDE8F88360688003F4D50020F8E70000F5
:1008D0004038024000000E42007000402DE9F04711
:1008E0000E46050065D0DFF81481D8F80000F7B295
:1008F00000F00F00B04207D288F80070D8F800006E
:1009000000F00F00B04254D128683D4C810712D549
:10091000400703D5206840F4E050206028780007A5
:1009200003D5206840F4604020602068A96820F06A
:10093000F000084320602878C0072DD0304968684F
:100940000839012812D0022813D0032811D00968D1
:10095000890700292DDA216821F003010143216074
:10096000FFF7F2FE814641F2883A0EE009688903FA
:10097000EFE709688901ECE7FFF7E6FEA0EB090164
:10098000514502D90320BDE8F0872068696800F06E
:100990000C00B0EB810FEFD1D8F80010404601F009
:1009A0000F01B14207D90770006800F00F00B04294
:1009B00001D00120E7E72878400705D52068E968DD
:1009C00020F4E050084320602878000706D520680E
:1009D000296920F4604040EAC100206000F038F846
:1009E0002168084AC1F30311515CC84006490860F8
:1009F00006480068FFF7D0FE0020C4E7003C024034
:100A0000083802405C170008100000200800002091
:100A10000448054900680968044AC1F38221515C11
:100A2000C840704710000020083802406C170008CA
:100A30000448054900680968044AC1F34231515C21
:100A4000C840704710000020083802406C170008AA
:100A5000154810B5006810F00C02144813D0144962
:100A6000042A0FD0082A0ED10F4C241F22682368B5
:100A700002F03F025B0207D52068C0F38810A0FB9C
:100A8000010106E0084610BD2168C1F38811A1FBF1
:100A900000010023FFF7A8FB2168C1F30141491CB5
:100AA0004900B0FBF1F010BD083802400024F4000A
:100AB00040787D012DE9F84F04006ED02078DFF8F2
:100AC0004C93C007A9F104054AD009F1040001685C
:100AD000C1F38101012908D00068C0F38100022818
:100AE0000AD1D9F80000400206D52868800337D51E
:100AF00060680028E1D033E06068B0F5803F10D036
:100B0000B0F5A02F286810D020F480302860286825
:100B100020F4802028606068A8B1FFF715FE064623
:100B20000DE0286840F48030F4E740F4802028602D
:100B3000F7E700BFFFF708FE801B642873D828681A
:100B40008003F7D50CE0FFF7FFFD064605E000BF88
:100B5000FFF7FAFD801B6428F0D828688003F7D4DB
:100B60002078DFF8AC8280074FF0000A3ED5A74816
:100B7000001D016811F00C0F08D00068C0F381005F
:100B800002280BD1D9F80000400207D4286880075A
:100B900016D5E068012800D112E033E1E068B8B171
:100BA0000120C8F80000FFF7CFFD064605E000BFB2
:100BB000FFF7CAFD801B0228C0D828688007F7D538
:100BC0002868216920F0F80040EAC10028600DE0A3
:100BD000C8F800A0FFF7B8FD064604E0FFF7B4FD33
:100BE000801B02281FD828688007F7D420780007C8
:100BF00022D5864F87486169703771B10121016044
:100C0000FFF7A2FD064604E0FFF79EFD801B0228C9
:100C100009D838688007F7D50EE0C0F800A0FFF7C4
:100C200093FD064605E082E0FFF78EFD801B02285B
:100C30007DD838688007F7D42078400768D5DFF87A
:100C4000CCB100270BF13C0BDBF80000C0000BD44B
:100C5000DBF8001041F08051CBF80010DBF8000009
:100C6000012700F0805000906B4E3068C00510D412
:100C7000306840F480703060FFF766FD009005E05A
:100C8000FFF762FD0099401A022850D83068C0056D
:100C9000F6D55E4EA0686C3601280FD00528306866
:100CA00010D020F001003060306820F00400306087
:100CB000A068B8B1FFF748FD00900FE0306840F041
:100CC0000100F4E740F004003060F7E7FFF73CFD77
:100CD0000099411A41F28830814266D83068800715
:100CE000F4D50EE0FFF730FD009007E0FFF72CFD94
:100CF0000099411A41F28830814256D83068800705
:100D0000F4D42FB1DBF8001021F08051CBF80010A3
:100D1000A069C8B33D49091D0968C1F381010229D1
:100D20004AD00228504607D0C8F8600000E03CE0F6
:100D3000FFF70AFD04463BE04746C8F86000FFF7AE
:100D400003FD064605E000BFFFF7FEFC801B0228FE
:100D50002BD828688001F7D4D4E907010843A16A99
:100D60002E4A490802EB0141626A41EA82110843B6
:100D700094F82C1040EA0161C9F80010012038668F
:100D8000FFF7E2FC044606E03EE000BFFFF7DCFCB4
:100D9000001B022809D828688001F7D534E000BF7D
:100DA000FFF7D2FC001B022802D90320BDE8F88F10
:100DB00028688001F4D427E00128F7D0D9F8000092
:100DC000E26900F4800191421CD1226A00F03F01E7
:100DD000914217D147F6C071626A0140B1EB821FA0
:100DE00010D1A26A4FF0FF3300F4403103EB5202FE
:100DF000B1EB024F06D194F82C1000F07060B0EB0C
:100E0000016F01D00120D1E70020CFE70438024074
:100E100000004742800E4742007000400000FFFF84
:100E200010B5401EB0F1807F01D3012010BD4FF0FE
:100E3000E02460610F21601700F0B0FA0020A0618B
:100E400007202061002010BD70B5040004D094F884
:100E50003D00002510B106E0012070BD84F83C5033
:100E6000204600F023F8242084F83D002068C16863
:100E700021F40051C160204600F0BCF920680169EE
:100E800021F4904101612068416921F02A0141610A
:100E90002068C16841F40051C1602564202084F8B5
:100EA0003D0084F83E00002070BD000010B586B003
:100EB000044614216846FFF7CFF914492068884298
:100EC00021D113480021026842F01002026000683C
:100ED00000F0100005900E481438026842F001023C
:100EE0000260006800F0010005904FF4C0600090BF
:100EF0000220CDE9010103200390072004906946F8
:100F00000448FFF701FB06B010BD000000100140CF
:100F100044380240000002402DE9F843044690F8AE
:100F20003D001F4616460D4620284CD1C5B1BEB126
:100F300094F83C00012846D0012084F83C004FF092
:100F40000008C4F84080212084F83D00FFF7FCFB36
:100F5000A6848146E684A068B0F5805F03D004E0F3
:100F60000120BDE8F883206928B12E465FF0000516
:100F700084F83C800EE00026FAE78021204600F04D
:100F8000BFF9A0B9AEB116F8010B21684860E08C3A
:100F9000401EE084E08C4B464FF000020097002892
:100FA000EBD14FF04001204600F0AAF930B1032008
:100FB000D7E735F8020BC0F30800E6E7202084F8F5
:100FC0003D000020CDE70220CBE7FEE72DE9F84306
:100FD0002C480021026842F48002026000682A4A1C
:100FE00000F4800000902948C0E90021802282603E
:100FF0009200D400C0E905415500C0E90325120262
:10100000C0E90712042242620322C0E90A210163F7
:10101000FFF7DAF908B1FFF7D4F920231C4A1D497C
:101020001A48FFF73BFA1C490028087028D01B4ECD
:101030004FF47A78F714002229463046FFF77EFBFA
:10104000012239463046FFF779FB0122214630461E
:10105000FFF774FB4046FFF745FA01222946304668
:10106000FFF76CFB012239463046FFF767FB012290
:1010700021463046FFF762FB4046FFF733FADAE7D6
:10108000BDE8F88330380240106402409800002028
:1010900018000020D416000801000020001C0240A7
:1010A00070B586B014216846FFF7D6F812480024C0
:1010B000016841F080010160016801F08001059143
:1010C000016841F00101016000680C4E00F0010070
:1010D0004FF4E0550590224629463046FFF72EFB97
:1010E00001200095CDE90104694630460394FFF7DD
:1010F0000BFA06B070BD000030380240001C024000
:101100000C4810B50A4901604FF4E13141600021FB
:1011100081600C22C160C0E904128161C161FFF7E6
:1011200093FE002803D0BDE81040FFF74AB910BD78
:1011300000100140F8000020FEE7FEE7704770470E
:10114000FFF708BB30B593B030216846FFF784F84D
:1011500014210CA8FFF780F820480025016841F011
:1011600080510160006800F0805011901C480168B7
:1011700041F4404101600068022400F440401190B5
:101180000120039010200490009406940820CDE9DB
:101190000750B420CDE9090404200B906846FFF7FE
:1011A00089FC08B172B6FEE7FFF760FB08B172B6C2
:1011B000FEE70CA90F2081E831004FF4A0500F90FA
:1011C0004FF48050109005210CA8FFF787FB0028F2
:1011D00001D072B6FEE713B030BD000040380240C7
:1011E000007000400248016841F4700101607047DE
:1011F00088ED00E070B5044600680169E26821F4FA
:101200004051114301612169A068E26908436169A5
:10121000114308432168CA6849F20C639A430243A8
:10122000CA6020684169A26921F44071114341619B
:1012300031492068884202D03049884202D1FFF704
:10124000F7FB01E0FFF7E4FBE269002319216425C5
:101250003226B2F5004F626828D0A0FB0101930F3F
:101260009200FEF7C1FF0146B0FBF5F06FF01802E7
:10127000504301EB800006EB0010B0FBF5F000F0EE
:10128000F002B1FBF5F002EB0012B1FBF5F06FF0EC
:101290001803584301EB800006EB0010B0FBF5F09B
:1012A00000F00F0021681044886070BDA0FB0101B0
:1012B00092185B41FEF798FF0146B0FBF5F0020182
:1012C000B1FBF5F06FF01803584301EB800006EB1B
:1012D000C000B0FBF5F000F0F80002EB4002B1FBFB
:1012E000F5F0584301EB800006EBC000B0FBF5F0D1
:1012F00000F00700D6E70000001001400014014094
:101300002DE9F041984617460E460446069D27E013
:10131000681C25D02DB1FFF717FAA0EB0800A842F2
:101320001ED920680C3050E8001F21F4D07140E82D
:101330000012002AF5D12068143050E8001F21F077
:10134000010140E80012002AF5D1202084F83D0078
:1013500084F83E00002084F83C000320BDE8F081C2
:101360002068006836EA000004D00020B842CFD0E0
:101370000020F3E70120F9E7FEE700000FB4054B7A
:1013800010B503A9044A029800F028F810BC5DF8D3
:1013900014FB000031150008140000200907090E95
:1013A000002804DB00F1E02080F80014704700F012
:1013B0000F0000F1E02080F8141D704702E008C81B
:1013C000121F08C1002AFAD170477047002001E0BF
:1013D00001C1121F002AFBD1704700002DE9FF4F09
:1013E00089B09B460446002506E025280BD05A46C6
:1013F0000B999047641C6D1C20780028F5D10DB026
:101400002846BDE8F08F0027B8460122474900E092
:10141000074314F8013F203B02FA03F00842F7D1DA
:1014200020782E2819D114F8010F47F004072A2834
:101430000ED06FF02F022078A0F1300109290CD8CE
:1014400008EB880102EB410100EB0108641CF2E7A4
:101450000A98641C50F8048B0A9020780028CED09B
:10146000642808D0692806D075281ED05A460B99E2
:1014700090476D1C58E00A994FF00A0901C90A917A
:10148000002802DA40422D2102E0390504D52B2143
:101490008DF82010012103E0F90704D02021F7E79F
:1014A0008A4608AE0DE00021FAE70A994FF00A09D2
:1014B00001C90A91F7E74946FEF7D9FE303106F82F
:1014C000011D0028F7D1ADEB060000F120097807D7
:1014D00001D44FF00108C84502DDA8EB090000E087
:1014E00000208046002706E008A85A46C05D0B99F8
:1014F00090476D1C7F1C5745F6DB04E030205A46B0
:101500000B9990476D1CB8F10001A8F10108F5DCBA
:1015100005E016F8010B5A460B9990476D1CB9F17E
:101520000001A9F10109F4DC641C65E70928010048
:1015300013B54FF47A73012269460248FFF7ECFCB9
:1015400000981CBDF8000020FFF70CF9FFF7FAFD2A
:10155000FFF7A6FDFFF73AFDFFF7D2FD3EA0FFF72C
:101560000DFF464B4748464F543B454C434A444D7C
:101570001E1F603F0168B83C914201D9186808E01D
:10158000A94201D9306804E0B94201D9606800E09D
:10159000206810F0200FEFD03BA0FFF7EFFE0024F3
:1015A0003D4E07253DA056F82410FFF7E7FEB4FB9B
:1015B000F5F005FB104010B92FA0FFF7DFFE641C0B
:1015C000A4B2202CEED32CA0FFF7D8FE34A0FFF756
:1015D000D5FE374E002400BF56F824102FA0FFF789
:1015E000CDFEB4FBF5F005FB104010B922A0FFF7CB
:1015F000C5FE641CA4B2202CEED31FA0FFF7BEFED4
:1016000020222B492448FEF779FE2A4C01462070FF
:1016100029A0FFF7B3FE4FF4806120782C4C4D00D9
:101620008E0000284FF00102204608D0FFF786F810
:10163000002229462046FFF781F8012207E0FFF744
:101640007DF8012229462046FFF778F8002231462E
:101650002046FFF773F8FEE753544D333220444DD4
:1016600041204D656D6F727920746F204D656D6FEF
:1016700072792054657374210A0000005864024096
:10168000B860024098000020615352435F42756683
:101690006665723A200A0000D41600082564090025
:1016A000614453545F4275666665723A200A0000D1
:1016B00018000020000000205472616E736665728D
:1016C000537461747573203D2025640A0000000086
:1016D000001C024004030201080706050C0B0A095E
:1016E000100F0E0D14131211181716151C1B1A19B2
:1016F000201F1E1D24232221282726252C2B2A29A2
:10170000302F2E2D34333231383736353C3B3A3991
:10171000403F3E3D44434241484756444C4B4A4972
:10172000504F4E4D45535251585756555C5B5A5980
:10173000605F5E5D64636261686766656C6B6A6961
:10174000706F6E6D74737271787776757C7B7A7951
:10175000807F7E7D00061016000610160000000037
:101760000000000001020304060708090000000051
:101770000102030494170008000000201800000074
:10178000BC130008AC170008180000202805000052
:10179000CC13000800000000010000001000000051
:0C17A000000000000024F4000000000025
:04000005080001AD41
:00000001FF
