:020000040800F2
:1000000060040020C501000857120008B111000863
:1000100055120008D1020008D115000800000000A8
:100020000000000000000000000000005B1200085B
:10003000D302000800000000591200085D120008F9
:10004000DF010008DF010008DF010008DF01000810
:10005000DF010008DF010008DF010008DF01000800
:10006000DF010008DF010008DF010008DF010008F0
:10007000DF010008DF010008DF010008DF010008E0
:10008000DF010008DF010008DF010008DF010008D0
:10009000DF010008DF010008DF010008DF010008C0
:1000A000DF010008DF010008DF010008DF010008B0
:1000B000DF010008DF010008DF010008DF010008A0
:1000C000DF010008DF010008DF010008DF01000890
:1000D000DF010008B5150008DF010008DF01000896
:1000E000DF010008DF010008DF010008DF01000870
:1000F000DF010008DF010008DF010008DF01000860
:10010000DF010008DF010008DF010008DF0100084F
:10011000DF010008DF010008DF010008DF0100083F
:10012000DF010008DF010008DF010008DF0100082F
:10013000DF010008DF010008DF010008DF0100081F
:10014000DF010008DF010008DF010008DF0100080F
:10015000DF010008DF010008DF010008DF010008FF
:10016000DF010008DF010008DF010008DF010008EF
:10017000DF010008DF010008DF01000800000000C7
:10018000DF010008DF010008DF010008DF010008CF
:10019000DF010008DF010008DF010008DF010008BF
:1001A000DF010008DF010008DF010008DFF810D0E0
:1001B00000F07CF8004800474D170008AFF30080BE
:1001C000600400200648804706480047FEE7FEE737
:1001D000FEE7FEE7FEE7FEE7FEE7FEE7FEE7FEE7F7
:1001E00001130008AD0100082DE9F05F054600206D
:1001F00092469B4688460646814640241BE0284698
:1002000041464746224600F041F853465A46C01A36
:10021000914110D311461846224600F028F82D1AB5
:1002200067EB01084F4622460120002100F01FF82D
:1002300017EB00094E41201EA4F10104DFDC484603
:1002400031462A464346BDE8F09FD2B201E000F8AD
:10025000012B491EFBD270470022F6E710B513466A
:100260000A4604461946FFF7F0FF204610BD202A33
:1002700004DB203A00FA02F1002070479140C2F1FD
:10028000200320FA03F3194390407047202A04DB2F
:10029000203A21FA02F00021704721FA02F3D040FF
:1002A000C2F120029140084319467047064C074DA1
:1002B00006E0E06840F0010394E807009847103436
:1002C000AC42F6D3FFF776FF241800084418000864
:1002D000FEE7704772B6FEE72DE9F0410446876DF0
:1002E00000F076F9064694F835000025022806D07D
:1002F0008020606584F834500120BDE8F0812068DA
:10030000016821F0160101602068416921F0800137
:100310004161206C08B9A06C20B12068016821F00F
:10032000080101602068016821F0010101600CE012
:1003300000F04EF9801B052807D9202060650320B6
:1003400084F8350084F83450D7E720680068C00787
:10035000EED194F85C103F208840B860012084F80A
:10036000350084F834500020C7E790F83510022992
:1003700003D08021416501207047052180F83510A8
:100380000068016821F00101016000207047000051
:100390002DE9F84FDFF8F8A1002201240AF1040B3F
:1003A00003254FF00F090BF1040E00BF0B6804FA90
:1003B00002F63340B34270D10F7907F00307012FE3
:1003C00001D0022F16D187684FEA420805FA08FCCF
:1003D00027EA0C07D1F80CC00CFA08FC4CEA070C11
:1003E000C0F808C04768B7430E79C6F300169640B8
:1003F0003E4346600E79F643B6070AD0C7684FEA17
:10040000420C05FA0CF6B7438E6806FA0CF63E432A
:10041000C6600E7906F00306022E10D1D60800EB56
:100420008608D8F8206057074FEAD76C09FA0CF70E
:10043000BE430F6907FA0CF73743C8F82070066807
:100440004FEA420C05FA0CF7BE430F7907F0030799
:1004500007FA0CF7374307604E6816F4403F1CD08C
:100460004C4E376847F480473760366822F0030700
:1004700006F480460096484E07EB060CDCF8086848
:1004800097073F0F09FA07F826EA0806DFF80C81FC
:10049000404503D14FF0000841E072E0DFF80081F1
:1004A000404502D14FF0010839E0DFF8F8804045BF
:1004B00002D14FF0020832E0DFF8EC80404502D173
:1004C0004FF003082BE0DFF8E480404502D14FF005
:1004D000040824E0DFF8D880404502D14FF0050839
:1004E0001DE0DFF8D080404502D14FF0060816E04D
:1004F000DFF8C480404502D14FF007080FE0DFF875
:10050000BC80404502D14FF0080808E0DFF8B08019
:10051000404502D14FF0090801E04FF00A0808FAFF
:1005200007F848EA0608CCF80888DAF80060574669
:10053000D1F804C09E435FEACC3C00D51E433E6028
:10054000DBF800605F46D1F804C09E435FEA8C3C54
:1005500000D51E433E60DEF800607746D1F804C047
:100560009E435FEACC2C00D51E433E60084F0C37FB
:100570003E68D1F804C09E435FEA8C2C00D51E4330
:100580003E60521C102AFFF411AFBDE8F88F000046
:10059000003C01404438024000300140000002406D
:1005A0000004024000080240000C0240001002401B
:1005B0000014024000180240001C024000200240CB
:1005C000002402400AB1816170470904FBE7000082
:1005D00001488068704700000000002002488168E0
:1005E0000278114481607047000000200B4810B56C
:1005F000016841F400710160016841F480610160AB
:10060000016841F480710160032000F06FF8002060
:1006100000F006F800F024F8002010BD003C024075
:1006200070B50D4D04464FF47A712878B1FBF0F0A7
:100630000A490968B1FBF0F000F044FB48B9102CFE
:1006400007D200222146501E00F030F800206C60D6
:1006500070BD012070BD0000000000200C000020D3
:100660000A4808B5016841F480410160006800F45F
:10067000804000900548001F016841F080510160F2
:10068000006800F08050009008BD0000443802402F
:10069000002809DB00F01F02012191404009800081
:1006A00000F1E020C0F8001170470000F0B40E4BDC
:1006B0001B680C46C3F30223C3F10705042D00D9C0
:1006C0000425191D072901D2002300E0DB1E0126A5
:1006D00006FA05F1491E214099409E40761E1640BB
:1006E0003143F0BC00F086BF0CED00E0064900F09D
:1006F000070208684FF6FF03184040EA0220034A49
:1007000010430860704700000CED00E00000FA059F
:100710002DE9F8431748016841F0805101600068F5
:10072000154F00F08050012600903E64FFF750FF07
:1007300005464FF47A78114C05E000BFFFF748FFFB
:10074000401B40450DD86068C003F7D57E64FFF7B5
:100750003FFF0546464607E0FFF73AFF401BB04221
:1007600002D90320BDE8F88360688003F4D5002037
:10077000F8E700004038024000000E4200700040E0
:100780002DE9F0470E46050065D0DFF81481D8F852
:100790000000F7B200F00F00B04207D288F80070F6
:1007A000D8F8000000F00F00B04254D128683D4C4A
:1007B000810712D5400703D5206840F4E05020603F
:1007C0002878000703D5206840F460402060206846
:1007D000A96820F0F000084320602878C0072DD0D9
:1007E000304968680839012812D0022813D003283C
:1007F00011D00968890700292DDA216821F0030149
:1008000001432160FFF7E4FE814641F2883A0EE0A1
:1008100009688903EFE709688901ECE7FFF7D8FE6B
:10082000A0EB0901514502D90320BDE8F0872068FB
:10083000696800F00C00B0EB810FEFD1D8F8001020
:10084000404601F00F01B14207D90770006800F07F
:100850000F00B04201D00120E7E72878400705D516
:100860002068E96820F4E0500843206028780007F9
:1008700006D52068296920F4604040EAC100206064
:1008800000F038F82168084AC1F30311515CC840F0
:100890000649086006480068FFF7C2FE0020C4E76A
:1008A000003C0240083802400C1800080C000020F0
:1008B000040000200448054900680968044AC1F39F
:1008C0008221515CC84070470C000020083802406B
:1008D0001C1800080448054900680968044AC1F367
:1008E0004231515CC84070470C000020083802407B
:1008F0001C180008154810B5006810F00C021448C8
:1009000013D01449042A0FD0082A0ED10F4C241FEB
:100910002268236802F03F025B0207D52068C0F31B
:100920008810A0FB010106E0084610BD2168C1F354
:100930008811A1FB00010023FFF756FC2168C1F3D9
:100940000141491C4900B0FBF1F010BD08380240DC
:100950000024F40040787D012DE9F84F04006ED0AA
:100960002078DFF84C93C007A9F104054AD009F1BB
:1009700004000168C1F38101012908D00068C0F3B7
:10098000810002280AD1D9F80000400206D5286863
:10099000800337D560680028E1D033E06068B0F5A7
:1009A000803F10D0B0F5A02F286810D020F4803000
:1009B0002860286820F4802028606068A8B1FFF7CC
:1009C00007FE06460DE0286840F48030F4E740F466
:1009D00080202860F7E700BFFFF7FAFD801B64283E
:1009E00073D828688003F7D50CE0FFF7F1FD0646C1
:1009F00005E000BFFFF7ECFD801B6428F0D82868F5
:100A00008003F7D42078DFF8AC8280074FF0000A2B
:100A10003ED5A748001D016811F00C0F08D00068F2
:100A2000C0F3810002280BD1D9F80000400207D49E
:100A30002868800716D5E068012800D112E033E16C
:100A4000E068B8B10120C8F80000FFF7C1FD064614
:100A500005E000BFFFF7BCFD801B0228C0D8286856
:100A60008007F7D52868216920F0F80040EAC10026
:100A700028600DE0C8F800A0FFF7AAFD064604E0D4
:100A8000FFF7A6FD801B02281FD828688007F7D42F
:100A90002078000722D5864F87486169703771B189
:100AA00001210160FFF794FD064604E0FFF790FD89
:100AB000801B022809D838688007F7D50EE0C0F8F7
:100AC00000A0FFF785FD064605E082E0FFF780FD08
:100AD000801B02287DD838688007F7D4207840072B
:100AE00068D5DFF8CCB100270BF13C0BDBF8000038
:100AF000C0000BD4DBF8001041F08051CBF800109F
:100B0000DBF80000012700F0805000906B4E306849
:100B1000C00510D4306840F480703060FFF758FD95
:100B2000009005E0FFF754FD0099401A022850D8C4
:100B30003068C005F6D55E4EA0686C3601280FD02F
:100B40000528306810D020F001003060306820F0B7
:100B500004003060A068B8B1FFF73AFD00900FE0E4
:100B6000306840F00100F4E740F004003060F7E73F
:100B7000FFF72EFD0099411A41F28830814266D874
:100B800030688007F4D50EE0FFF722FD009007E003
:100B9000FFF71EFD0099411A41F28830814256D874
:100BA00030688007F4D42FB1DBF8001021F08051B9
:100BB000CBF80010A069C8B33D49091D0968C1F30D
:100BC000810102294AD00228504607D0C8F86000A7
:100BD00000E03CE0FFF7FCFC04463BE04746C8F879
:100BE0006000FFF7F5FC064605E000BFFFF7F0FCEC
:100BF000801B02282BD828688001F7D4D4E907018C
:100C00000843A16A2E4A490802EB0141626A41EA9F
:100C10008211084394F82C1040EA0161C9F80010D1
:100C200001203866FFF7D4FC044606E03EE000BF32
:100C3000FFF7CEFC001B022809D828688001F7D5F1
:100C400034E000BFFFF7C4FC001B022802D90320D8
:100C5000BDE8F88F28688001F4D427E00128F7D098
:100C6000D9F80000E26900F4800191421CD1226AA7
:100C700000F03F01914217D147F6C071626A01400E
:100C8000B1EB821F10D1A26A4FF0FF3300F4403164
:100C900003EB5202B1EB024F06D194F82C1000F096
:100CA0007060B0EB016F01D00120D1E70020CFE7E9
:100CB0000438024000004742800E47420070004066
:100CC0000000FFFF10B5401EB0F1807F01D301206E
:100CD00010BD4FF0E02460610F21601700F08AFC26
:100CE0000020A06107202061002010BD70477047E0
:100CF000F8B5016804460868CA684B6910F00F0F20
:100D00004FF0000559D003F0010602F49077374305
:100D100065D0C10705D0D10503D5216C41F0010193
:100D20002164410705D5D90703D0216C41F00201A8
:100D30002164810705D5D90703D0216C41F0040156
:100D40002164010707D502F02001314303D0216C53
:100D500041F008012164216C00293AD0800604D5B5
:100D6000900602D5204600F002FB20684069216C05
:100D7000C0F38010090700D460B3204600F0D0FA19
:100D800020684069400621D52068143050E8001FD3
:100D900021F0400140E80012002AF5D1A06BA8B173
:100DA0006C490165A06BFFF7E0FA002811D0A06B39
:100DB000016D01B0BDE8F040084783060FD59306EA
:100DC0000DD52046BDE8F84000F0D1BA2046FFF727
:100DD0008EFFF8BD2046FFF78AFF2564F8BD266B1D
:100DE0002023012E79D1C60677D5D60675D5086899
:100DF000486800904869400640D5A16B0868406883
:100E00000004000CEAD0A28D8242E7D9E085C869CF
:100E1000B0F5807F2DD020680C3050E8001F21F401
:100E2000807140E80012002AF5D12068143050E8A3
:100E3000001F21F0010140E80012002AF5D12068CE
:100E4000143050E8001F21F0400140E80012002A51
:100E5000F5D184F83E30256320680C3050E8001F3F
:100E600021F0100140E80012002AF5D1A06BFFF735
:100E700033FAA08DE18D401A81B229E0A08DE18D79
:100E8000401A81B2E08D0028A8D00029A6D02068A1
:100E90000C3050E8002F22F4907240E80026002E1B
:100EA000F5D12068143050E8002F22F0010240E80C
:100EB0000026002EF5D184F83E30256320680C30E2
:100EC00050E8002F22F0100240E80023002BF5D15B
:100ED0002046FFF70BFFF8BDFFE705062BD51506EB
:100EE00029D594F83D002128F5D1A068B0F5805FA0
:100EF00001D12069B0B1206A411C216221680078CB
:100F00004860E08C401E0004000CE084E3D12068BF
:100F1000C16821F08001C1602068C16841F04001D2
:100F2000C160D8E7206A0088C0F308004860206AE2
:100F3000801C2062E5E74006CDD55006CBD5CA68B7
:100F4000204622F04002CA6084F83D3000F02FF9BC
:100F5000C1E700001113000870B5040004D094F834
:100F60003D00002510B106E0012070BD84F83C5022
:100F7000204600F023F8242084F83D002068C16852
:100F800021F40051C160204600F052FA2068016946
:100F900021F4904101612068416921F02A014161F9
:100FA0002068C16841F40051C1602564202084F8A4
:100FB0003D0084F83E00002070BD000010B586B0F2
:100FC000044614216846FFF747F91849206888420B
:100FD00029D117480021026842F01002026000681F
:100FE00000F01000059012481438026842F0010227
:100FF0000260006800F0010005904FF4C0600090AE
:101000000220CDE9010103200390072004906946E6
:101010000848FFF7BDF9002211462520FFF746FBDF
:101020002520FFF735FB06B010BD00000010014081
:1010300044380240000002402DE9F84F044690F881
:101040003E009A4616460D46202853D1FDB1F6B112
:1010500094F83C0001284DD0012084F83C00002782
:101060002764222084F83E002763FFF7B1FAA685A3
:101070008146E685A0684FF48058404501D120693B
:1010800040B12E465FF0000584F83C7027E0012057
:10109000BDE8F88F0026F7E74B46002220212046C6
:1010A000CDF800A000F04AFA08B10320F0E726B11D
:1010B000A06840451BD038B108E020684068C0F304
:1010C000080025F8020B07E0206980B1206840681D
:1010D00000F07F0006F8010BE08D401EE085E08DFA
:1010E0000028D9D1202084F83E000020D0E72068D5
:1010F0004068EFE70220CBE7704700002DE9F84396
:10110000044690F83D001F4616460D4620284CD157
:10111000C5B1BEB194F83C00012846D0012084F846
:101120003C004FF00008C4F84080212084F83D00C6
:10113000FFF74EFAA6848146E684A068B0F5805F8A
:1011400003D004E00120BDE8F883206928B12E46D1
:101150005FF0000584F83C800EE00026FAE780216D
:10116000204600F0EBF9A0B9AEB116F8010B2168EA
:101170004860E08C401EE084E08C4B464FF000025B
:1011800000970028EBD14FF04001204600F0D6F93F
:1011900030B10320D7E735F8020BC0F30800E6E7CB
:1011A000202084F83D000020CDE70220CBE77047E7
:1011B000FEE7000070B586B014216846FFF74CF8D2
:1011C00012480024016841F080010160016801F0CB
:1011D00080010591016841F00101016000680C4E39
:1011E00000F001004FF4E0550590012229463046F9
:1011F000FFF7E8F901200095CDE901046946304682
:101200000394FFF7C5F806B070BD00003038024007
:10121000001C024010B50E4C0C480C2120604FF40D
:10122000E13060600020A060E060C4E90401A061DA
:10123000E0612046FFF790FE08B1FFF74BF8206809
:10124000C16841F02001C16010BD000000100140E4
:1012500018000020FEE7FEE770477047FFF7BEB9B1
:1012600030B593B030216846FEF7F6FF14210CA884
:10127000FEF7F2FF20480025016841F0805101602F
:10128000006800F0805011901C48016841F4404112
:1012900001600068022400F4404011900120039096
:1012A00010200490009406940820CDE90750B42043
:1012B000CDE9090404200B906846FFF74DFB08B107
:1012C00072B6FEE7FFF724FA08B172B6FEE70CA982
:1012D0000F2081E831004FF4A0500F904FF4805060
:1012E000109005210CA8FFF74BFA002801D072B628
:1012F000FEE713B030BD00004038024000700040EF
:101300000248016841F470010160704788ED00E017
:1013100010B5806B0021C185C184FFF7E8FC10BDCA
:1013200001680C3151E8002F22F4907241E800234B
:10133000002BF5D10168143151E8002F22F0010291
:1013400041E80023002BF5D1016B012909D1016887
:101350000C3151E8002F22F0100241E80023002B4D
:10136000F5D1202180F83E1000210163704708B5B7
:1013700090F83E10222901D0022008BD82684FF467
:1013800080539A4201D1016921B1816A9A421BD0EE
:101390004AB10AE00268816A5268C2F308020A8010
:1013A000816A891C08E0026972B10268526802F021
:1013B0007F020A70816A491C8162C18D491E09043D
:1013C000090CC18503D019E002685268F1E7016891
:1013D000CA6822F02002CA600168CA6822F48072DA
:1013E000CA6001684A6922F001024A61202180F83E
:1013F0003E10016B012903D0FFF77EFE002008BDDF
:101400000021016301680C3151E8002F22F0100225
:1014100041E80023002BF5D101680A68D20602D505
:101420000A6849680091818DFFF760FCE6E70000DB
:1014300070B5044600680169E26821F44051114327
:1014400001612169A068E2690843616911430843A9
:101450002168CA6849F20C639A430243CA60206853
:101460004169A26921F44071114341613149206809
:10147000884202D03049884202D1FFF72BFA01E0BE
:10148000FFF718FAE2690023192164253226B2F524
:10149000004F626828D0A0FB0101930F9200FEF775
:1014A000A3FE0146B0FBF5F06FF01802504301EBCC
:1014B000800006EB0010B0FBF5F000F0F002B1FB8D
:1014C000F5F002EB0012B1FBF5F06FF01803584392
:1014D00001EB800006EB0010B0FBF5F000F00F0010
:1014E00021681044886070BDA0FB010192185B4127
:1014F000FEF77AFE0146B0FBF5F00201B1FBF5F014
:101500006FF01803584301EB800006EBC000B0FBFE
:10151000F5F000F0F80002EB4002B1FBF5F05843A3
:1015200001EB800006EBC000B0FBF5F000F0070017
:10153000D6E7000000100140001401402DE9F04101
:10154000984617460E460446069D27E0681C25D09F
:101550002DB1FFF73DF8A0EB0800A8421ED9206886
:101560000C3050E8001F21F4D07140E80012002A2E
:10157000F5D12068143050E8001F21F0010140E847
:101580000012002AF5D1202084F83D0084F83E00A6
:10159000002084F83C000320BDE8F081206800684A
:1015A00036EA000004D00020B842CFD00020F3E794
:1015B0000120F9E7054800680168C943890602D49B
:1015C0004168C9B241600148FFF792BB1800002092
:1015D000FEE700000FB4054B10B503A9044A0298BA
:1015E00000F027F810BC5DF814FB0000311700086C
:1015F000140000200907090E002804DB00F1E02098
:1016000080F80014704700F00F0000F1E02080F82F
:10161000141D704702E008C8121F08C1002AFAD141
:1016200070477047002001E001C1121F002AFBD162
:1016300070472DE9F84F994692468846054600279F
:1016400006E025280AD051464A4690476D1C7F1C6B
:1016500028780028F5D13846BDE8F88F002315F822
:10166000011F18462E2915D115F8011F04232A2918
:101670000DD06FF02F022978A1F13004092C09D880
:1016800000EB800002EB400008446D1CF3E758F8C3
:10169000040B6D1C2A78002ADDD0632A07D0732A38
:1016A0000FD0104651464A4690477F1C2AE018F852
:1016B000042B8DF8002000218DF801106E460121C9
:1016C00003E058F8046B4FF0FF315A074FF0000465
:1016D00001D409E0641C84420BDA8C42FADB325DEF
:1016E000002AF7D105E0641C8C42FCDB305D002849
:1016F000F9D1274404E016F8010B51464A469047B9
:10170000641EF8D26D1CA3E7084808B5006801689C
:10171000C9438906FBD44FF47A7301226946034812
:10172000FFF78AFC9DF8000008BD000018000020AB
:1017300013B54FF47A73012269460248FFF7DEFCC5
:1017400000981CBD18000020FFF7DEBFFEF74EFF1B
:10175000FFF786FDFFF72EFDFFF75CFD1DA0FFF7ED
:1017600039FF224C4FF48066E7144FF4805820482C
:10177000FFF7EAFFC5B229461EA0FFF72BFF312D68
:1017800006D0322D0BD0332D4FF0010201D112E0E3
:10179000002231462046FEF715FF012205E0012216
:1017A00031462046FEF70EFF002239462046FEF75E
:1017B00009FF012209E031462046FEF703FF01221E
:1017C00039462046FEF7FEFE002241462046FEF73F
:1017D000F9FECCE753544D33322055415254205238
:1017E00047422054455354210A000000001C024087
:1017F000100000204461746120726563656976653C
:1018000064206973203A202563200A00000000004C
:1018100000000000010203040607080900000000A0
:101820000102030444180008000000201800000012
:10183000141600085C180008180000204804000076
:101840002416000801000000100000000000000045
:0C1850000024F400000000000000000074
:04000005080001AD41
:00000001FF
