:020000040800F2
:10000000E0040020C5010008431100084310000867
:1000100041110008D10200081D170008000000006F
:10002000000000000000000000000000E1140008D3
:10003000D30200080000000045110008E314000886
:10004000DF010008DF010008DF010008DF01000810
:10005000DF010008DF010008DF010008DF01000800
:10006000DF010008DF010008DF010008DF010008F0
:10007000DF010008DF010008DF010008DF010008E0
:10008000DF010008DF010008DF010008DF010008D0
:10009000DF010008DF010008DF010008DF010008C0
:1000A000DF010008DF010008DF010008DF010008B0
:1000B000DF010008DF010008DF010008DF010008A0
:1000C000DF010008DF010008DF010008DF01000890
:1000D000DF010008DF010008DF010008DF01000880
:1000E000DF010008DF010008DF010008DF01000870
:1000F000DF010008DF010008DF010008DF01000860
:10010000DF010008DF010008DF010008DF0100084F
:10011000DF010008DF010008DF010008DF0100083F
:10012000DF010008DF010008DF010008DF0100082F
:10013000DF010008DF010008DF010008DF0100081F
:10014000DF010008DF010008DF010008DF0100080F
:10015000DF010008DF010008DF010008DF010008FF
:10016000DF010008DF010008DF010008DF010008EF
:10017000DF010008DF010008DF01000800000000C7
:10018000DF010008DF010008DF010008DF010008CF
:10019000DF01000849110008DF010008DF01000845
:1001A000DF010008DF010008DF010008DFF810D0E0
:1001B00000F07CF800480047591A0008AFF30080AF
:1001C000E00400200648804706480047FEE7FEE7B7
:1001D000FEE7FEE7FEE7FEE7FEE7FEE7FEE7FEE7F7
:1001E00089150008AD0100082DE9F05F05460020E3
:1001F00092469B4688460646814640241BE0284698
:1002000041464746224600F041F853465A46C01A36
:10021000914110D311461846224600F028F82D1AB5
:1002200067EB01084F4622460120002100F01FF82D
:1002300017EB00094E41201EA4F10104DFDC484603
:1002400031462A464346BDE8F09FD2B201E000F8AD
:10025000012B491EFBD270470022F6E710B513466A
:100260000A4604461946FFF7F0FF204610BD202A33
:1002700004DB203A00FA02F1002070479140C2F1FD
:10028000200320FA03F3194390407047202A04DB2F
:10029000203A21FA02F00021704721FA02F3D040FF
:1002A000C2F120029140084319467047064C074DA1
:1002B00006E0E06840F0010394E807009847103436
:1002C000AC42F6D3FFF776FF081C0008281C000894
:1002D000FEE7704772B6FEE790F83510022903D0AA
:1002E0008021416501207047052180F835100068A4
:1002F000016821F0010101600020704770B50446DB
:1003000000F02EF90546601C02D004480078044431
:1003100000F026F9401BA042FAD370BD2000002057
:100320002DE9F84FDFF8F8A1002201240AF1040BAF
:1003300003254FF00F090BF1040E00BF0B6804FA00
:1003400002F63340B34270D10F7907F00307012F53
:1003500001D0022F16D187684FEA420805FA08FC3F
:1003600027EA0C07D1F80CC00CFA08FC4CEA070C81
:10037000C0F808C04768B7430E79C6F30016964028
:100380003E4346600E79F643B6070AD0C7684FEA87
:10039000420C05FA0CF6B7438E6806FA0CF63E439B
:1003A000C6600E7906F00306022E10D1D60800EBC7
:1003B0008608D8F8206057074FEAD76C09FA0CF77F
:1003C000BE430F6907FA0CF73743C8F82070066878
:1003D0004FEA420C05FA0CF7BE430F7907F003070A
:1003E00007FA0CF7374307604E6816F4403F1CD0FD
:1003F0004C4E376847F480473760366822F0030771
:1004000006F480460096484E07EB060CDCF80868B8
:1004100097073F0F09FA07F826EA0806DFF80C816C
:10042000404503D14FF0000841E072E0DFF8008161
:10043000404502D14FF0010839E0DFF8F88040452F
:1004400002D14FF0020832E0DFF8EC80404502D1E3
:100450004FF003082BE0DFF8E480404502D14FF075
:10046000040824E0DFF8D880404502D14FF00508A9
:100470001DE0DFF8D080404502D14FF0060816E0BD
:10048000DFF8C480404502D14FF007080FE0DFF8E5
:10049000BC80404502D14FF0080808E0DFF8B0808A
:1004A000404502D14FF0090801E04FF00A0808FA70
:1004B00007F848EA0608CCF80888DAF800605746DA
:1004C000D1F804C09E435FEACC3C00D51E433E6099
:1004D000DBF800605F46D1F804C09E435FEA8C3CC5
:1004E00000D51E433E60DEF800607746D1F804C0B8
:1004F0009E435FEACC2C00D51E433E60084F0C376C
:100500003E68D1F804C09E435FEA8C2C00D51E43A0
:100510003E60521C102AFFF411AFBDE8F88F0000B6
:10052000003C0140443802400030014000000240DD
:100530000004024000080240000C0240001002408B
:100540000014024000180240001C0240002002403B
:10055000002402400AB1816170470904FBE70000F2
:100560000148806870470000200000200248816830
:100570000278114481607047200000200B4810B5BC
:10058000016841F400710160016841F4806101601B
:10059000016841F480710160032000F06FF80020D1
:1005A00000F006F800F024F8002010BD003C0240E6
:1005B00070B50D4D04464FF47A712878B1FBF0F018
:1005C0000A490968B1FBF0F000F066FC48B9102C4C
:1005D00007D200222146501E00F030F800206C6047
:1005E00070BD012070BD0000200000202C00002004
:1005F0000A4808B5016841F480410160006800F4D0
:10060000804000900548001F016841F08051016062
:10061000006800F08050009008BD0000443802409F
:10062000002809DB00F01F020121914040098000F1
:1006300000F1E020C0F8001170470000F0B40E4B4C
:100640001B680C46C3F30223C3F10705042D00D930
:100650000425191D072901D2002300E0DB1E012615
:1006600006FA05F1491E214099409E40761E16402B
:100670003143F0BC01F064B80CED00E0064900F035
:10068000070208684FF6FF03184040EA0220034AB9
:1006900010430860704700000CED00E00000FA0510
:1006A0002DE9F8431748016841F080510160006866
:1006B000154F00F08050012600903E64FFF750FF78
:1006C00005464FF47A78114C05E000BFFFF748FF6C
:1006D000401B40450DD86068C003F7D57E64FFF726
:1006E0003FFF0546464607E0FFF73AFF401BB04292
:1006F00002D90320BDE8F88360688003F4D50020A8
:10070000F8E700004038024000000E420070004050
:100710002DE9F0470E46050065D0DFF81481D8F8C2
:100720000000F7B200F00F00B04207D288F8007066
:10073000D8F8000000F00F00B04254D128683D4CBA
:10074000810712D5400703D5206840F4E0502060AF
:100750002878000703D5206840F4604020602068B6
:10076000A96820F0F000084320602878C0072DD049
:10077000304968680839012812D0022813D00328AC
:1007800011D00968890700292DDA216821F00301B9
:1007900001432160FFF7E4FE814641F2883A0EE012
:1007A00009688903EFE709688901ECE7FFF7D8FEDC
:1007B000A0EB0901514502D90320BDE8F08720686C
:1007C000696800F00C00B0EB810FEFD1D8F8001091
:1007D000404601F00F01B14207D90770006800F0F0
:1007E0000F00B04201D00120E7E72878400705D587
:1007F0002068E96820F4E05008432060287800076A
:1008000006D52068296920F4604040EAC1002060D4
:1008100000F038F82168084AC1F30311515CC84060
:100820000649086006480068FFF7C2FE0020C4E7DA
:10083000003C024008380240F01B00082C00002059
:10084000240000200448054900680968044AC1F3EF
:100850008221515CC84070472C00002008380240BB
:10086000001C00080448054900680968044AC1F3EF
:100870004231515CC84070472C00002008380240CB
:10088000001C0008154810B5006810F00C02144850
:1008900013D01449042A0FD0082A0ED10F4C241F5C
:1008A0002268236802F03F025B0207D52068C0F38C
:1008B0008810A0FB010106E0084610BD2168C1F3C5
:1008C0008811A1FB00010023FFF78EFC2168C1F312
:1008D0000141491C4900B0FBF1F010BD083802404D
:1008E0000024F40040787D012DE9F84F04006ED01B
:1008F0002078DFF84C93C007A9F104054AD009F12C
:1009000004000168C1F38101012908D00068C0F327
:10091000810002280AD1D9F80000400206D52868D3
:10092000800337D560680028E1D033E06068B0F517
:10093000803F10D0B0F5A02F286810D020F4803070
:100940002860286820F4802028606068A8B1FFF73C
:1009500007FE06460DE0286840F48030F4E740F4D6
:1009600080202860F7E700BFFFF7FAFD801B6428AE
:1009700073D828688003F7D50CE0FFF7F1FD064631
:1009800005E000BFFFF7ECFD801B6428F0D8286865
:100990008003F7D42078DFF8AC8280074FF0000A9C
:1009A0003ED5A748001D016811F00C0F08D0006863
:1009B000C0F3810002280BD1D9F80000400207D40F
:1009C0002868800716D5E068012800D112E033E1DD
:1009D000E068B8B10120C8F80000FFF7C1FD064685
:1009E00005E000BFFFF7BCFD801B0228C0D82868C7
:1009F0008007F7D52868216920F0F80040EAC10097
:100A000028600DE0C8F800A0FFF7AAFD064604E044
:100A1000FFF7A6FD801B02281FD828688007F7D49F
:100A20002078000722D5864F87486169703771B1F9
:100A300001210160FFF794FD064604E0FFF790FDF9
:100A4000801B022809D838688007F7D50EE0C0F867
:100A500000A0FFF785FD064605E082E0FFF780FD78
:100A6000801B02287DD838688007F7D4207840079B
:100A700068D5DFF8CCB100270BF13C0BDBF80000A8
:100A8000C0000BD4DBF8001041F08051CBF800100F
:100A9000DBF80000012700F0805000906B4E3068BA
:100AA000C00510D4306840F480703060FFF758FD06
:100AB000009005E0FFF754FD0099401A022850D835
:100AC0003068C005F6D55E4EA0686C3601280FD0A0
:100AD0000528306810D020F001003060306820F028
:100AE00004003060A068B8B1FFF73AFD00900FE055
:100AF000306840F00100F4E740F004003060F7E7B0
:100B0000FFF72EFD0099411A41F28830814266D8E4
:100B100030688007F4D50EE0FFF722FD009007E073
:100B2000FFF71EFD0099411A41F28830814256D8E4
:100B300030688007F4D42FB1DBF8001021F0805129
:100B4000CBF80010A069C8B33D49091D0968C1F37D
:100B5000810102294AD00228504607D0C8F8600017
:100B600000E03CE0FFF7FCFC04463BE04746C8F8E9
:100B70006000FFF7F5FC064605E000BFFFF7F0FC5C
:100B8000801B02282BD828688001F7D4D4E90701FC
:100B90000843A16A2E4A490802EB0141626A41EA10
:100BA0008211084394F82C1040EA0161C9F8001042
:100BB00001203866FFF7D4FC044606E03EE000BFA3
:100BC000FFF7CEFC001B022809D828688001F7D562
:100BD00034E000BFFFF7C4FC001B022802D9032049
:100BE000BDE8F88F28688001F4D427E00128F7D009
:100BF000D9F80000E26900F4800191421CD1226A18
:100C000000F03F01914217D147F6C071626A01407E
:100C1000B1EB821F10D1A26A4FF0FF3300F44031D4
:100C200003EB5202B1EB024F06D194F82C1000F006
:100C30007060B0EB016F01D00120D1E70020CFE759
:100C40000438024000004742800E474200700040D6
:100C50000000FFFF7047000038B5016804464A688D
:100C60008868C043430606D5C30704D1D3435B0657
:100C700001D4216C05E0830708D4D3431B0605D4B7
:100C8000616C01B02046BDE830400847830603D5BB
:100C9000430601D5C30551D4D3439B064ED4430626
:100CA0000AD494F85130032B49D0636D43F0040308
:100CB0006365CB688B680093830609D4636D43F04A
:100CC000010363658B6800930B6823F040030B609E
:100CD000C00506D4606D40F008006065206880683B
:100CE0000090606D002829D02068416821F0E00163
:100CF0004160012084F85100900701D4D00722D030
:100D00002068416821F003014160114DE06C40B161
:100D10000565E06CFFF7E0FA18B1606D40F0400047
:100D20006065A06C002809D00565A06CFFF7D4FAB7
:100D3000002803D0606D40F04000606538BDC86891
:100D40008868009038BD2046FFF784FF38BD00005A
:100D50005511000870B5040009D0606A002540B143
:100D600025616561A56294F8510040B10CE0012055
:100D700070BD6068B0F5827FF4D0E561F2E784F879
:100D80005050204600F044F8022084F851002068BA
:100D9000016821F040010160A088218900F482707F
:100DA00001F404410843A18901F400610843217C56
:100DB00001F002010843217D01F001010843218B6C
:100DC00001F400710843217F01F03801084394F8D1
:100DD000201001F080010843218D01F400510843E7
:100DE00021680860A069042101EA104094F82410E9
:100DF00001F010010843216848602068C16921F4AE
:100E00000061C1616565012084F85100002070BD5A
:100E100030B587B0044614216846FFF71DFA1B4918
:100E20002068884230D11A48016841F4801101607D
:100E3000006800F48010059015481438016841F0EE
:100E4000200101600068012400F0200005904FF4AB
:100E5000607000900220CDE90104039005200D4D43
:100E6000049069462846FFF75BFA4020CDE900046C
:100E700069462846FFF754FA002211465520FFF72D
:100E8000DDFB5520FFF7CCFB07B030BD0050014023
:100E9000443802400014024010B5401EB0F1807F7B
:100EA00001D3012010BD4FF0E02460610F216017D5
:100EB00000F046FC0020A06107202061002010BD4A
:100EC00070B5040004D094F83D00002510B106E090
:100ED000012070BD84F83C50204600F023F8242007
:100EE00084F83D002068C16821F40051C1602046AB
:100EF00000F052FB2068016921F4904101612068F3
:100F0000416921F02A0141612068C16841F4005122
:100F1000C1602564202084F83D0084F83E00002054
:100F200070BD000010B586B0044614216846FFF776
:100F300093F914492068884221D11348002102689E
:100F400042F010020260006800F0100005900E48A8
:100F50001438026842F001020260006800F00100EB
:100F600005904FF4C06000900220CDE901010320FC
:100F700003900720049069460448FFF7D1F906B0B2
:100F800010BD000000100140443802400000024043
:100F90002DE9F843044690F83D001F4616460D46DD
:100FA00020284CD1C5B1BEB194F83C00012846D0F0
:100FB000012084F83C004FF00008C4F84080212054
:100FC00084F83D00FFF7CCFAA6848146E684A06849
:100FD000B0F5805F03D004E00120BDE8F88320690C
:100FE00028B12E465FF0000584F83C800EE0002614
:100FF000FAE78021204600F055FBA0B9AEB116F803
:10100000010B21684860E08C401EE084E08C4B4678
:101010004FF0000200970028EBD14FF0400120462E
:1010200000F040FB30B10320D7E735F8020BC0F3E6
:101030000800E6E7202084F83D000020CDE70220EC
:10104000CBE7FEE770B586B014216846FFF704F9D8
:1010500016480024016841F020010160016801F098
:1010600020010591016841F080010160016801F0F3
:1010700080010591016841F00101016000680C4E9A
:1010800000F001004FF4E05505900022294630465B
:10109000FFF760FA01200095CDE90104694630466A
:1010A0000394FFF73DF906B070BD000030380240F0
:1010B000001C024010B5134C1148022120604FF46F
:1010C000827060600020A060C4E9030101216161B9
:1010D0004902C4E9061020626062A0620720E06253
:1010E0002046FFF737FE08B1FFF7F4F820680168E3
:1010F00041F040010160BDE8104000F0B9B80000C7
:1011000000500140440000200C4810B50A4901601D
:101110004FF4E1314160002181600C22C160C0E9DF
:1011200004128161C161FFF7CBFE002803D0BDE846
:101130001040FFF7CFB810BD001001409C00002008
:10114000FEE7FEE7704700000148FFF785BD00009D
:101150004400002010B5806B0021C187C186FFF7D5
:1011600079FD10BD2DE9F041114F06464FF4800086
:1011700015460C463860032000F03AF9200E00F0C6
:1011800037F9C4F3074000F033F9C4F3072000F047
:101190002FF9E0B200F02CF904E0FF2000F028F96C
:1011A00006F8010B6D1EF8D240203860BDE8F081D2
:1011B000181402402DE9F04707460E4611F0FF00D3
:1011C000C0F10001CDB2C2F3072402F0FF094FF4D1
:1011D000807A13D0F0B24042C0B206EB00080CB3E4
:1011E000501BC0F3072400F0FF092A463146384659
:1011F00000F056F83D44464657462AE06CB1554645
:10120000641EE4B20CD32A463146384600F048F852
:1012100006F5807607F58077F2E73146384621E01B
:101220004A46FAE7A945F8D9A9EB0500C4B22A460F
:101230003146384600F034F841467819224611E02C
:101240003A463146284600F02BF805F5807506F53C
:101250008076641EE4B2F3D2B9F1000006D00246F3
:1012600031462846BDE8F04700F01AB8BDE8F087DF
:1012700070B50A4C4FF480062660152000F0B8F8CF
:10128000FF2000F0B5F840252560C00704D1266096
:10129000B72000F0ADF8256070BD000018140240C2
:1012A0002DE9F04114460D46064600F0EBF8144FC8
:1012B0004FF480003860022000F09AF8280E00F009
:1012C00097F8C5F3074000F093F8C5F3072000F046
:1012D0008FF8E8B200F08CF8B4F5807F07D909A048
:1012E00000F01EFAFF24307800F082F8761C641EAD
:1012F000F9D240203860BDE8F04100F0A3B800000A
:10130000181402403C3C2D464C4153482D45525246
:101310004F522D3E3E205350495F464C4153485F4B
:1013200050616765577269746520746F6F206C61D6
:10133000726765210A00000010B50B4C4FF4800065
:101340002060AB2000F054F8FF2000F051F8FF209F
:1013500000F04EF8FF2000F04BF8FF2000F048F8B6
:101360004021216010BD00001814024070B50D4DE1
:101370004FF4800028609F2000F03AF8FF2000F032
:1013800037F80446FF2000F033F80646FF2000F04F
:101390002FF8014640202860200440EA0620084338
:1013A00070BD00001814024070B5044600F06AF8E1
:1013B00000F048F80D4D4FF480002860202000F028
:1013C00017F8200E00F014F8C4F3074000F010F8EE
:1013D000C4F3072000F00CF8E0B200F009F8402058
:1013E0002860BDE8704000F02DB8000018140240DD
:1013F00070B512494FF480550D60114B1C6805E023
:101400000A68561E0E6001D200200CE0A268D2438A
:101410009207F5D4E0600D601A6808E00868431E82
:101420000B6004D2012000F03BF8C0B270BD9068A0
:10143000C043C007F2D1D068F7E700001C000020CD
:101440004400002070B50D4D4FF480002860052049
:10145000FFF7CEFF0A4CA8142060FF20FFF7C8FF5B
:1014600021684A1E226004D2BDE87040042000F0CA
:1014700017B8C007F1D14020286070BD1814024091
:101480001C00002010B5054C4FF4800020600620A1
:10149000FFF7AEFF4020206010BD0000181402408E
:1014A00010B5014602A000F03BF9002010BD00007D
:1014B0003C3C2D464C4153482D4552524F522D3EF7
:1014C0003E2053504920B5C8B4FDB3ACCAB1216524
:1014D00072726F72436F6465203D2025640A0000BC
:1014E0007047FFF743B8000030B593B0302168462D
:1014F000FEF7B2FE14210CA8FEF7AEFE2048002530
:10150000016841F080510160006800F08050119046
:101510001C48016841F4404101600068022400F465
:1015200040401190012003901020049000940694F4
:101530000820CDE90750B420CDE9090404200B9020
:101540006846FFF7D1F908B172B6FEE7FFF7A8F8D1
:1015500008B172B6FEE70CA90F2081E831004FF404
:10156000A0500F904FF48050109005210CA8FFF769
:10157000CFF8002801D072B6FEE713B030BD0000EE
:1015800040380240007000400248016841F4700198
:101590000160704788ED00E070B50446006801699D
:1015A000E26821F44051114301612169A068E269B8
:1015B00008436169114308432168CA6849F20C6312
:1015C0009A430243CA6020684169A26921F44071CC
:1015D0001143416131492068884202D03049884234
:1015E00002D1FFF73FF901E0FFF72CF9E269002390
:1015F000192164253226B2F5004F626828D0A0FB7D
:101600000101930F9200FEF7EFFD0146B0FBF5F0EC
:101610006FF01802504301EB800006EB0010B0FBA6
:10162000F5F000F0F002B1FBF5F002EB0012B1FBB7
:10163000F5F06FF01803584301EB800006EB001043
:10164000B0FBF5F000F00F0021681044886070BD19
:10165000A0FB010192185B41FEF7C6FD0146B0FBFD
:10166000F5F00201B1FBF5F06FF01803584301EB00
:10167000800006EBC000B0FBF5F000F0F80002EBD4
:101680004002B1FBF5F0584301EB800006EBC000CF
:10169000B0FBF5F000F00700D6E7000000100140B5
:1016A000001401402DE9F041984617460E460446C5
:1016B000069D27E0681C25D02DB1FEF751FFA0EB59
:1016C0000800A8421ED920680C3050E8001F21F401
:1016D000D07140E80012002AF5D12068143050E89B
:1016E000001F21F0010140E80012002AF5D120205E
:1016F00084F83D0084F83E00002084F83C0003207C
:10170000BDE8F0812068006836EA000004D00020BF
:10171000B842CFD00020F3E70120F9E7FEE7000050
:101720000FB4054B10B503A9044A029800F028F83D
:1017300010BC5DF814FB0000411A000830000020C6
:101740000907090E002804DB00F1E02080F80014EE
:10175000704700F00F0000F1E02080F8141D704782
:1017600002E008C8121F08C1002AFAD1704770476A
:10177000002001E001C1121F002AFBD170470000C8
:101780002DE9FF4F8DB09B460F460446002606E02C
:1017900025280BD05A460F999047641C761C207858
:1017A0000028F5D111B03046BDE8F08F0025A846DD
:1017B0000122984900E0054314F8013F203B02FA5A
:1017C00003F00842F7D120782E2817D114F8010F22
:1017D00045F004052A280ED06FF02F022078A0F1E2
:1017E000300109290AD808EB880102EB410100EB1E
:1017F0000108641CF2E757F8048B641C20786C28FD
:101800000DD004DC4C2812D06A2811D104E07428D1
:101810000DD07A280CD10AE045F4001507E0617874
:1018200045F48015814202D1641C05F58015641CC5
:101830002078692844D008DC0028B3D0582867D025
:1018400063280FD0642808D13AE0702865D0732847
:1018500012D075285AD078285AD05A460F999047F6
:10186000761CD5E017F8040B8DF8000000208DF8E9
:101870000100E946012003E057F8049B4FF0FF30D8
:1018800069074FF0000501D40AE06D1C45450DDAEB
:101890008542FADB19F805100029F6D106E06D1C27
:1018A0008542FCDB19F805100029F8D12E4404E02C
:1018B00019F8010B5A460F9990476D1EF8D2A7E010
:1018C0000A200021CDE90801C5F3025002280CD0FE
:1018D00001CFC117021E71F100020CDA0023D0EB18
:1018E000030063EB01012D2208E0FF1D27F007072D
:1018F000F7E80201EEE72A0504D52B228DF828200F
:1019000001223CE0EA073AD02022F7E70A2000E073
:1019100010200021CDE9080107E01020002145F04A
:101920000405CDE908014FF00808C5F3025002286C
:1019300010D001CF00214FF0000A2A0720D52278CD
:10194000702A0DD0DDE908C38CF0100C5CEA030CA2
:101950000CD015E0FF1D27F00707F7E80201EAE7C2
:1019600040228DF828204FF0010A0CE050EA0103D4
:1019700006D030238DF828308DF829200222924697
:101980002278582A04D024A20DF120090B9209E0F4
:1019900026A2F9E7DDE90823FEF726FC0B9B9B5CFA
:1019A00009F8013D50EA0102F4D1ADEB0900203005
:1019B0000890680701D44FF001080899884503DDB5
:1019C0000898A8EB000000E000208046002506E013
:1019D0000AA85A46405D0F9990476D1C761C5545E4
:1019E000F6DB04E030205A460F999047761CB8F198
:1019F0000001A8F10108F5DC05E019F8010B5A46D1
:101A00000F999047761C0899481E08900029F4DC2D
:101A1000641CC4E6092801003031323334353637CE
:101A2000383961626364656600000000303132332A
:101A300034353637383941424344454600000000CA
:101A400013B54FF47A73012269460248FFF7A0FAF2
:101A500000981CBD9C000020FEF790FDFFF744FDA0
:101A6000FFF7F0FAFFF726FBFFF74EFB2DA0FFF77D
:101A700057FEFFF761FC3A4C20606420FEF73EFC05
:101A8000FFF774FC60602268616836A0FFF748FECB
:101A90003F4D00224FF480512846FEF75BFD0122A6
:101AA0004FF440612846FEF755FD40F6B830FEF78A
:101AB00025FC606837494FF47A74884222D136A0F9
:101AC000FFF72EFE0020FFF76FFC254810220021B3
:101AD0000830FFF76FFB224937A00831FFF720FEDF
:101AE000102200213B48FFF73DFB3A493AA0FFF79F
:101AF00017FE0022E9142846FEF72CFD01224FF4C0
:101B0000A05108E000224FF480612846FEF722FD34
:101B100001224FF4C0512846FEF71CFD2046FEF777
:101B2000EDFBFEE7546869732069732031364D2060
:101B30005350492053657269616C20464C415348AB
:101B4000202857323551313238292053504920440A
:101B5000726976652054657374200D0A00000000D8
:101B6000000000200A09466C6173682049642069FE
:101B70007320307825582C204465766963652049A8
:101B8000642069732030782558090D0A0000000090
:101B9000001C02401940EF000D0A0944657465639A
:101BA000742053504920464C4153482057323551F8
:101BB00031323821090D0A000D0A0944617461208F
:101BC000746F2077726974652069733A0D0A257302
:101BD00000000000340000200D0A094461746120F7
:101BE000746F20726561642069733A0D0A25730071
:101BF00000000000000000000102030406070809BD
:101C00000000000001020304281C0008000000205E
:101C100034000000601700085C1C0008340000203D
:101C2000AC04000070170008000000000000000075
:101C300053544D33322053504920544553540D0AC8
:101C40000000000000A000000100000010000000E3
:0C1C5000000000000024F4000000000070
:04000005080001AD41
:00000001FF
