:020000040800F2
:10000000B0060020C5010008B71B0008A7140008AF
:10001000B51B0008D1020008F51D00080000000013
:10002000000000000000000000000000BB1B0008F2
:10003000D302000800000000B91B0008BD1B000827
:10004000DF010008DF010008DF010008DF01000810
:10005000DF010008DF010008DF010008DF01000800
:10006000DF010008DF010008DF010008DF010008F0
:10007000DF010008DF010008DF010008DF010008E0
:10008000DF010008DF010008DF010008DF010008D0
:10009000DF010008DF010008DF010008DF010008C0
:1000A000DF010008DF010008DF010008DF010008B0
:1000B000DF010008DF010008DF010008DF010008A0
:1000C000DF010008DF010008DF010008DF01000890
:1000D000DF010008DF010008DF010008DF01000880
:1000E000DF010008DF010008DF010008DF01000870
:1000F000DF010008DF010008DF010008DF01000860
:10010000DF010008DF010008DF010008DF0100084F
:10011000DF010008DF010008DF010008DF0100083F
:10012000DF010008DF010008DF010008DF0100082F
:10013000DF010008DF010008DF010008DF0100081F
:10014000DF010008DF010008DF010008DF0100080F
:10015000DF010008DF010008DF010008DF010008FF
:10016000DF010008DF010008DF010008DF010008EF
:10017000DF010008DF010008DF01000800000000C7
:10018000DF010008DF010008DF010008DF010008CF
:10019000DF010008DF010008DF010008DF010008BF
:1001A000DF010008DF010008DF010008DFF810D0E0
:1001B00000F07CF800480047C9220008AFF3008037
:1001C000B00600200648804706480047FEE7FEE7E5
:1001D000FEE7FEE7FEE7FEE7FEE7FEE7FEE7FEE7F7
:1001E000611C0008AD0100082DE9F05F0546002004
:1001F00092469B4688460646814640241BE0284698
:1002000041464746224600F041F853465A46C01A36
:10021000914110D311461846224600F028F82D1AB5
:1002200067EB01084F4622460120002100F01FF82D
:1002300017EB00094E41201EA4F10104DFDC484603
:1002400031462A464346BDE8F09FD2B201E000F8AD
:10025000012B491EFBD270470022F6E710B513466A
:100260000A4604461946FFF7F0FF204610BD202A33
:1002700004DB203A00FA02F1002070479140C2F1FD
:10028000200320FA03F3194390407047202A04DB2F
:10029000203A21FA02F00021704721FA02F3D040FF
:1002A000C2F120029140084319467047064C074DA1
:1002B00006E0E06840F0010394E807009847103436
:1002C000AC42F6D3FFF776FF5023000870230008F6
:1002D000FEE7704772B6FEE72DE9F84FDFF8F8A1A8
:1002E000002201240AF1040B03254FF00F090BF142
:1002F000040E00BF0B6804FA02F63340B34270D11B
:100300000F7907F00307012F01D0022F16D187685C
:100310004FEA420805FA08FC27EA0C07D1F80CC09E
:100320000CFA08FC4CEA070CC0F808C04768B74351
:100330000E79C6F3001696403E4346600E79F643AA
:10034000B6070AD0C7684FEA420C05FA0CF6B74365
:100350008E6806FA0CF63E43C6600E7906F0030678
:10036000022E10D1D60800EB8608D8F82060570777
:100370004FEAD76C09FA0CF7BE430F6907FA0CF77E
:100380003743C8F8207006684FEA420C05FA0CF7AC
:10039000BE430F7907F0030707FA0CF737430760EE
:1003A0004E6816F4403F1CD04C4E376847F48047E7
:1003B0003760366822F0030706F480460096484E00
:1003C00007EB060CDCF8086897073F0F09FA07F8F7
:1003D00026EA0806DFF80C81404503D14FF00008FB
:1003E00041E072E0DFF80081404502D14FF00108A2
:1003F00039E0DFF8F880404502D14FF0020832E0E2
:10040000DFF8EC80404502D14FF003082BE0DFF825
:10041000E480404502D14FF0040824E0DFF8D880A2
:10042000404502D14FF005081DE0DFF8D08040457F
:1004300002D14FF0060816E0DFF8C480404502D133
:100440004FF007080FE0DFF8BC80404502D14FF0C5
:10045000080808E0DFF8B080404502D14FF00908F5
:1004600001E04FF00A0808FA07F848EA0608CCF855
:100470000888DAF800605746D1F804C09E435FEA66
:10048000CC3C00D51E433E60DBF800605F46D1F8EF
:1004900004C09E435FEA8C3C00D51E433E60DEF8FC
:1004A00000607746D1F804C09E435FEACC2C00D5AB
:1004B0001E433E60084F0C373E68D1F804C09E438F
:1004C0005FEA8C2C00D51E433E60521C102AFFF4BC
:1004D00011AFBDE8F88F0000003C014044380240F5
:1004E00000300140000002400004024000080240C9
:1004F000000C0240001002400014024000180240AC
:10050000001C024000200240002402400AB1816128
:1005100070470904FBE7000001488068704700004D
:100520000000002090F83D20202A01D002207047D2
:10053000242280F83D200268136823F00103136031
:100540000268536A23F0100353620268536A0B4334
:10055000536201680A6842F001020A60202180F8B3
:100560003D100020704790F83D20202A01D0022045
:100570007047242280F83D200268136823F00103AD
:10058000136003685A6A22F00F020A4391B259625B
:1005900001680A6842F001020A60202180F83D10DB
:1005A0000020704790F83D007047000070B50400CF
:1005B00025D094F83D00002520B984F83C50204611
:1005C00000F002FB242084F83D002068016821F03F
:1005D000010101602068016841F400410160206868
:1005E000016821F40041016000F080FC4D4A61681F
:1005F000914201D84C4900E04C49884201D2012087
:1006000070BD4B492368B0FBF1F15E6826F03F06F0
:100610000E435E606368934206D94FF49673594364
:100620004FF47A73B1FBF3F12368491C1E6A26F07C
:100630003F06314319626168914210D84900401E5B
:10064000B0FBF1F2521CC2F30B02042A01D20420C7
:1006500022E0B0FBF1F0401CC0F30B001CE0A268EC
:10066000F2B301EBC10303EB0116431EB3FBF6F338
:100670005B1C43F480431B0549D092B301EBC102DC
:1006800002EB0111401EB0FBF1F0401CC0F30B0067
:1006900040F4804040F400402168CA694CF6FF7382
:1006A0009A431043C861D4E90710014320680268E7
:1006B00022F0C00211430160D4E903010143206824
:1006C000826848F2FF339A4311438160D4E90501FF
:1006D00008432168CA6822F0FF021043C86001E0A5
:1006E0000EE016E02068016841F001010160256418
:1006F000202084F83D00256384F83E50002070BD22
:1007000001EB4106431EB3FBF6F35B1CB3E701208C
:10071000C2E701EB4101401EB0FBF1F0401CC0F309
:100720000B00B7E7A086010080841E0000093D0091
:1007300040420F002DE9FF4F81B089460446FFF784
:10074000EBFE054694F83D004FF0010820287DD1CE
:100750001923012250492046009501F0D1F80028C4
:1007600074D194F83C00012870D0012084F83C003A
:1007700020680168C90703D1016841F001010160E7
:100780002068016821F400610160242084F83D00A4
:10079000002626644148E0624FF0011B20272068B4
:1007A000016841F48071016000950022594620469D
:1007B000049B01F0A5F850B120680068C00502D57F
:1007C0004FF400702064032005B0BDE8F08F21686D
:1007D00009F0FE000861FFF79FFE216805464869A1
:1007E0004969C0F34000C1F380214FF0A00A0FE037
:1007F000FFF792FE411B0498814200D808B984F8A3
:100800003DA0216848694969C0F34000C1F38021D7
:1008100094F83D20A02A02D008B90029E8D084F835
:100820003D7020684169C943890716D4016841F4C5
:10083000007101602068416980691923012216490D
:100840002046009501F05CF8B8B900E021E084F89A
:100850003D7084F83C600020B6E7016841F4007107
:10086000016021686FF480604861192301220A4900
:100870002046009501F044F808B10120A4E7039850
:1008800008F1010880458AD384F83D7084F83C6003
:10089000F3E7022098E70000020010000000FFFFCD
:1008A0002DE9FF4F83B09A46DDE911979346044640
:1008B000DDF84080FFF730FE054694F83D00202823
:1008C00070D11923012271492046009501F018F8D2
:1008D0000028F5D194F83C00012863D0012084F869
:1008E0003C0020680168C90703D1016841F001019B
:1008F00001602068016821F400610160222084F811
:100900003D00402084F83E0000262664C4F8248080
:10091000A4F82A90608D20855D48E062CDE90075DD
:1009200053465A462046049900F04CFE00287CD1DC
:10093000208DD0B1012821D00228206824D041691F
:1009400080690090208D032869D801282BD0514957
:1009500002283B464FF00002009559D088462046B9
:1009600000F0CEFF002860D13CE020684169816939
:100970000091016841F40071016077E0206801682E
:1009800021F480610160F0E7016821F48061016079
:100990002068016841F40061016020684169806954
:1009A000009063E06FE02A463946204601F027F8C0
:1009B00098BB20680069616A08704EE02068016891
:1009C00041F40071016020680069616A0870606A22
:1009D000401C6062218D491E2185618D491E618503
:1009E000216838E02068016821F480610160206896
:1009F0000069616A0870606A401C6062208D401E58
:100A00002085608D401E60853B4600224146009552
:100A1000204600F075FF00B9D0E706E0FFE72A4660
:100A20003946204600F0EBFF18B1012007B0BDE8C1
:100A3000F08F20680069616A0870606A401C60621B
:100A4000218D491E2185618D491E618521684A6974
:100A5000D24352070AD409690170606A401C60627F
:100A6000208D401E2085608D401E6085208D0028D1
:100A70007FF468AF202084F83D0084F83E6084F85D
:100A80003C600020D2E70220D0E700000200100006
:100A90000000FFFF040001002DE9FF4F83B09A46DC
:100AA000DDE9119793460446DDF84080FFF734FDF9
:100AB000054694F83D0020287FD1192301224049A2
:100AC0002046009500F01CFF002876D194F83C00E9
:100AD000012872D0012084F83C0020680168C90711
:100AE00003D1016841F0010101602068016821F42F
:100AF00000610160212084F83D00402084F83E0020
:100B000000262664C4F82480A4F82A90608D2085ED
:100B10002C48E062CDE9007553465A4620460499B8
:100B200000F0CEFD70B930E02A463946204600F08C
:100B300099FF58B1206C042804D12068016841F461
:100B400000710160012007B0BDE8F08F606A216884
:100B500000780861606A401C6062218D491E89B27C
:100B60002185628D521E628522685369DB435B07D3
:100B70000BD469B100781061606A401C6062208DFE
:100B8000401E2085608D401E6085208D0028CBD1C1
:100B90002A463946204600F08DFE0028CAD154F876
:100BA0003D0B016841F400710160202004F81E092A
:100BB000E67766770020C6E7FFE70220C3E700007C
:100BC000020010000000FFFF10B586B0044614219B
:100BD0006846FFF741FB13492068884220D112483C
:100BE000016841F0020101600068694600F00200FE
:100BF0000590C02000901220019001200290032057
:100C00000390042004900948FFF766FB0648103063
:100C1000016841F400110160006800F400100590C3
:100C200006B010BD005400403038024000040240BD
:100C300002488168027811448160704700000020FA
:100C40000B4810B5016841F400710160016841F47E
:100C500080610160016841F480710160032000F04F
:100C600061F8002000F006F800F024F8002010BD24
:100C7000003C024070B50D4D04464FF47A7128785F
:100C8000B1FBF0F00A490968B1FBF0F000F036FB67
:100C900048B9102C07D200222146501E00F022F83D
:100CA00000206C6070BD012070BD000000000020BD
:100CB0000C0000200A4808B5016841F48041016039
:100CC000006800F4804000900548001F016841F072
:100CD00080510160006800F08050009008BD000065
:100CE00044380240F0B40E4B1B680C46C3F3022399
:100CF000C3F10705042D00D90425191D072901D2C8
:100D0000002300E0DB1E012606FA05F1491E214002
:100D100099409E40761E16403143F0BC01F07CB8ED
:100D20000CED00E0064900F0070208684FF6FF03EB
:100D3000184040EA0220034A104308607047000050
:100D40000CED00E00000FA052DE9F84317480168B2
:100D500041F0805101600068154F00F0805001267D
:100D600000903E64FFF7D8FB05464FF47A78114CAB
:100D700005E000BFFFF7D0FB401B40450DD8606881
:100D8000C003F7D57E64FFF7C7FB0546464607E07C
:100D9000FFF7C2FB401BB04202D90320BDE8F88335
:100DA00060688003F4D50020F8E700004038024076
:100DB00000000E42007000402DE9F0470E4605008D
:100DC00065D0DFF81481D8F80000F7B200F00F000A
:100DD000B04207D288F80070D8F8000000F00F0089
:100DE000B04254D128683D4C810712D5400703D545
:100DF000206840F4E05020602878000703D5206880
:100E000040F4604020602068A96820F0F0000843AA
:100E100020602878C0072DD030496868083901283B
:100E200012D0022813D0032811D00968890700299D
:100E30002DDA216821F0030101432160FFF76CFBEB
:100E4000814641F2883A0EE009688903EFE70968B4
:100E50008901ECE7FFF760FBA0EB0901514502D9DE
:100E60000320BDE8F0872068696800F00C00B0EB53
:100E7000810FEFD1D8F80010404601F00F01B142C8
:100E800007D90770006800F00F00B04201D00120C0
:100E9000E7E72878400705D52068E96820F4E050A6
:100EA000084320602878000706D52068296920F4C7
:100EB000604040EAC100206000F038F82168084A2C
:100EC000C1F30311515CC840064908600648006838
:100ED000FFF7D0FE0020C4E7003C02400838024083
:100EE000382300080C0000200400002004480549B5
:100EF00000680968044AC1F38221515CC840704708
:100F00000C00002008380240482300080448054926
:100F100000680968044AC1F34231515CC840704717
:100F20000C0000200838024048230008154810B57E
:100F3000006810F00C02144813D01449042A0FD092
:100F4000082A0ED10F4C241F2268236802F03F02AA
:100F50005B0207D52068C0F38810A0FB010106E002
:100F6000084610BD2168C1F38811A1FB00010023D0
:100F7000FFF73AF92168C1F30141491C4900B0FB70
:100F8000F1F010BD083802400024F40040787D01E3
:100F90002DE9F84F04006ED02078DFF84C93C0079D
:100FA000A9F104054AD009F104000168C1F38101E7
:100FB000012908D00068C0F3810002280AD1D9F8BD
:100FC0000000400206D52868800337D560680028F5
:100FD000E1D033E06068B0F5803F10D0B0F5A02FCD
:100FE000286810D020F480302860286820F4802001
:100FF00028606068A8B1FFF78FFA06460DE0286800
:1010000040F48030F4E740F480202860F7E700BF28
:10101000FFF782FA801B642873D828688003F7D50D
:101020000CE0FFF779FA064605E000BFFFF774FA17
:10103000801B6428F0D828688003F7D42078DFF874
:10104000AC8280074FF0000A3ED5A748001D01681A
:1010500011F00C0F08D00068C0F3810002280BD1FA
:10106000D9F80000400207D42868800716D5E06848
:10107000012800D112E033E1E068B8B10120C8F8DE
:101080000000FFF749FA064605E000BFFFF744FA03
:10109000801B0228C0D828688007F7D528682169F6
:1010A00020F0F80040EAC10028600DE0C8F800A078
:1010B000FFF732FA064604E0FFF72EFA801B0228FB
:1010C0001FD828688007F7D42078000722D5864FDC
:1010D00087486169703771B101210160FFF71CFA1F
:1010E000064604E0FFF718FA801B022809D8386882
:1010F0008007F7D50EE0C0F800A0FFF70DFA06460E
:1011000005E082E0FFF708FA801B02287DD83868E6
:101110008007F7D42078400768D5DFF8CCB10027E6
:101120000BF13C0BDBF80000C0000BD4DBF8001027
:1011300041F08051CBF80010DBF80000012700F0EF
:10114000805000906B4E3068C00510D4306840F479
:1011500080703060FFF7E0F9009005E0FFF7DCF900
:101160000099401A022850D83068C005F6D55E4E66
:10117000A0686C3601280FD00528306810D020F008
:1011800001003060306820F004003060A068B8B121
:10119000FFF7C2F900900FE0306840F00100F4E77B
:1011A00040F004003060F7E7FFF7B6F90099411A04
:1011B00041F28830814266D830688007F4D50EE06D
:1011C000FFF7AAF9009007E0FFF7A6F90099411A86
:1011D00041F28830814256D830688007F4D42FB16C
:1011E000DBF8001021F08051CBF80010A069C8B3E3
:1011F0003D49091D0968C1F3810102294AD002282D
:10120000504607D0C8F8600000E03CE0FFF784F9E2
:1012100004463BE04746C8F86000FFF77DF9064604
:1012200005E000BFFFF778F9801B02282BD828685B
:101230008001F7D4D4E907010843A16A2E4A49087E
:1012400002EB0141626A41EA8211084394F82C10D2
:1012500040EA0161C9F8001001203866FFF75CF927
:10126000044606E03EE000BFFFF756F9001B0228E7
:1012700009D828688001F7D534E000BFFFF74CF9A2
:10128000001B022802D90320BDE8F88F28688001DE
:10129000F4D427E00128F7D0D9F80000E26900F47F
:1012A000800191421CD1226A00F03F01914217D186
:1012B00047F6C071626A0140B1EB821F10D1A26A89
:1012C0004FF0FF3300F4403103EB5202B1EB024F19
:1012D00006D194F82C1000F07060B0EB016F01D0D3
:1012E0000120D1E70020CFE7043802400000474248
:1012F000800E4742007000400000FFFF10B5401E06
:10130000B0F1807F01D3012010BD4FF0E024606177
:101310000F21601700F080FD0020A06107202061F0
:10132000002010BD70B5040004D094F83D000025E5
:1013300010B106E0012070BD84F83C50204600F05A
:1013400023F8242084F83D002068C16821F400516E
:10135000C160204600F08CFC2068016921F49041B6
:1013600001612068416921F02A0141612068C1685A
:1013700041F40051C1602564202084F83D0084F8C8
:101380003E00002070BD000010B586B00446142158
:101390006846FEF761FF14492068884221D113484E
:1013A0000021026842F010020260006800F01000A4
:1013B00005900E481438026842F00102026000688D
:1013C00000F0010005904FF4C06000900220CDE9CC
:1013D0000101032003900720049069460448FEF7AA
:1013E0007BFF06B010BD00000010014044380240F1
:1013F000000002402DE9F843044690F83D001F46E6
:1014000016460D4620284CD1C5B1BEB194F83C001B
:10141000012846D0012084F83C004FF00008C4F8B1
:101420004080212084F83D00FFF776F8A6848146AD
:10143000E684A068B0F5805F03D004E00120BDE839
:10144000F883206928B12E465FF0000584F83C80BF
:101450000EE00026FAE78021204600F08FFCA0B9BC
:10146000AEB116F8010B21684860E08C401EE084A4
:10147000E08C4B464FF0000200970028EBD14FF074
:101480004001204600F07AFC30B10320D7E735F860
:10149000020BC0F30800E6E7202084F83D0000209E
:1014A000CDE70220CBE7FEE70EB54FF47A738DE867
:1014B0000D000A460123A0210148FFF7F1F90EBDF6
:1014C000140200202DE9F041064611F007000C46F9
:1014D00002F00701C0F10807C2F3C70588460FD024
:1014E0007DB1D01BC0F3C70500F0070847B33A46EB
:1014F0002146304600F02AF8E019C4B23E441FE00D
:101500004DB90A460EE008222146304600F01EF88A
:101510000834E4B208366D1EEDB2F4D2B8F1000022
:1015200012D0024621463046BDE8F04100F00EB828
:1015300008222146304600F009F80834E4B20836A3
:101540006D1EEDB2F4D2E9E7BDE8F0813EB564234B
:101550008DE80D000A460123A0210D48FFF79CFAF3
:1015600004460B48FFF71EF82028FAD14FF4967571
:101570002A462B46A0210648FFF7DCF80328F7D0BF
:101580000348FFF70FF82028FAD120463EBD00009F
:101590001402002001684A69D24352050FD46FF447
:1015A00080624A61002140F8301F2022427381731B
:1015B000026942F0040202610173012070470020B9
:1015C000704700002DE9F84F0446006889460B9DDE
:1015D00001689846174641F48061016020680168FF
:1015E00041F48071016000954FF0011B00225946C3
:1015F00020460A9B00F084F94FF4007A40B120683D
:101600000068C00501D5C4F840A00320BDE8F88FEC
:10161000216809F0FE0008612B46284920460A9AF5
:1016200000F0A2F9F0BB20684169806900902A4669
:1016300020460A9900F016FA40B1206C04283AD1ED
:101640002068016841F40071016034E0FEB2B8F135
:10165000010F09D02168380A08612A4620460A99F4
:1016600000F000FA0028E8D1206806612A462046EA
:101670000A9900F0F7F90028DFD12068016841F4E9
:101680008071016000950022594620460A9B00F0B7
:1016900037F90028B3D1216809F0FF0040F00100BC
:1016A000086100E007E02B46044920460A9A00F052
:1016B0005BF90028AAD00120A8E700000200010081
:1016C0002DE9F843044600680D46DDE908970168F6
:1016D0009846164641F4807101604B4600224FF057
:1016E00001112046009700F00BF948B1206800680E
:1016F000C00502D54FF4007020640320BDE8F883D4
:10170000216805F0FE0008613B464A46154920461F
:1017100000F02AF988B920684169806900903A464A
:101720004946204600F09EF948B1206C042804D1B7
:101730002068016841F4007101600120DEE7F5B224
:10174000B8F1010F09D02168300A08613A464946CC
:10175000204600F087F90028E7D1206805610020C5
:10176000CCE700000200010070B521A000F044FBAE
:10177000284D0024E1B2295527A000F03DFBE043AD
:10178000000702D126A000F037FB641CA4B2FF2C96
:10179000F0D94FF48074224600211E48FFF792FED4
:1017A00020A000F029FB224600212748FFF77CFEFD
:1017B000254E0024315D285D814217A006D000F03F
:1017C0001BFB22A000F018FB002070BD00F014FBF2
:1017D000E043000702D112A000F00EFB641CA4B28B
:1017E000FF2CE7D924A000F007FB012070BD00000A
:1017F0003C3C2D454550524F4D2D494E464F2D3EB8
:101800003E204461746120746F2062652077726F9E
:1018100074650A00140000203078253032782000EA
:101820000A0D00003C3C2D454550524F4D2D494E70
:10183000464F2D3E3E204461746120746F206265E6
:1018400020726561640A0000140100203C3C2D45B3
:101850004550524F4D2D4552524F522D3E3E204540
:1018600072726F723A2049324320444154412045FC
:1018700052524F520A0000003C3C2D454550524FF9
:101880004D2D494E464F2D3E3E2049324320577242
:1018900069746520616E64205265616420546573CB
:1018A00074205375636365737366756C6C79210A74
:1018B0000000000070B516460D4604460DE02046B7
:1018C000FFF768FE08B1012070BD681C05D0FEF767
:1018D00023FE801BA84207D835B120684069C04369
:1018E0004007ECD4002070BD002044F8300F2021C8
:1018F0006173A073216941F0200121612073E2E747
:101900002DE9F0471E4690460D460446C1F30747B1
:10191000DDF8209008E0701C06D0FEF7FDFDA0EB7E
:101920000900B0420FD876B12068012F18D0806925
:1019300025EA00000004000C14D000214145EAD043
:101940000020BDE8F087002044F8300F20216173AB
:10195000A073216941F02001216120730120F0E78B
:101960004069E5E70121E9E72DE9F0479A4691460C
:101970000E46044600254FF02008C1F3074725E036
:1019800020684069C043400514D42068016841F4D0
:101990000071016021686FF480604861256384F8FC
:1019A0003D8084F83E50206C40F00400206484F8B0
:1019B0003C501FE0B9F1FF3F08D0FEF7ADFDA0EBB2
:1019C0000A0149450CD8B9F1000F09D02068012F50
:1019D00013D0806926EA00000004000C0BD0CFE78A
:1019E00044F8305F84F80D80A573206940F0200032
:1019F000206125730120BDE8F0874069EAE72DE901
:101A0000F041002590460E460446202717E0406925
:101A1000C043C0060CD454F8301B6FF0100048616E
:101A200044F810596777A577206A2062257717E078
:101A3000FEF772FDA0EB0800B04208D83EB1206866
:101A40004169C9434906E2D40020BDE8F08144F869
:101A5000305F6773A573206940F020002061257313
:101A60000120F2E770B516460D4604460DE020460B
:101A7000FFF790FD08B1012070BD681C05D0FEF78E
:101A80004BFD801BA84207D835B120684069C04390
:101A90000006ECD4002070BD002044F8300F202157
:101AA0006173A073216941F0200121612073E2E795
:101AB00070B586B014216846FEF7CEFB16480024A8
:101AC000016841F080010160016801F08001059129
:101AD000016841F001010160016801F00101059117
:101AE000016841F00201016000680C4E00F0020044
:101AF0004FF4E0550590002229463046FEF706FDDA
:101B000001200095CDE90104694630460394FEF7B3
:101B1000E3FB06B070BD000030380240001C0240FC
:101B2000144810B5124901601349416000214FF477
:101B300080428160C0E9031241618161C16101623B
:101B4000FEF734FD08B1FEF7C5FB00210948FEF79A
:101B5000E9FC08B1FEF7BEFB00210648FEF703FDD5
:101B6000002803D0BDE81040FEF7B4BB10BD000054
:101B70000054004014020020A08601000C4810B55B
:101B80000A4901604FF4E1314160002181600C227B
:101B9000C160C0E904128161C161FFF7C3FB002885
:101BA00003D0BDE81040FEF795BB10BD001001400A
:101BB00068020020FEE7FEE770477047FFF738B87D
:101BC00030B593B030216846FEF746FB14210CA8CF
:101BD000FEF742FB20480025016841F0805101607A
:101BE000006800F0805011901C48016841F44041A9
:101BF00001600068022400F440401190012003902D
:101C000010200490009406940820CDE90750B420D9
:101C1000CDE9090404200B906846FFF7B9F908B133
:101C200072B6FEE7FFF790F808B172B6FEE70CA9AE
:101C30000F2081E831004FF4A0500F904FF48050F6
:101C4000109005210CA8FFF7B7F8002801D072B654
:101C5000FEE713B030BD0000403802400070004085
:101C60000248016841F470010160704788ED00E0AE
:101C700070B5044600680169E26821F440511143DF
:101C800001612169A068E269084361691143084361
:101C90002168CA6849F20C639A430243CA6020680B
:101CA0004169A26921F440711143416131492068C1
:101CB000884202D03049884202D1FFF727F901E07B
:101CC000FFF714F9E2690023192164253226B2F5E1
:101CD000004F626828D0A0FB0101930F9200FEF72D
:101CE00083FA0146B0FBF5F06FF01802504301EBA8
:101CF000800006EB0010B0FBF5F000F0F002B1FB45
:101D0000F5F002EB0012B1FBF5F06FF01803584349
:101D100001EB800006EB0010B0FBF5F000F00F00C7
:101D200021681044886070BDA0FB010192185B41DE
:101D3000FEF75AFA0146B0FBF5F00201B1FBF5F0EF
:101D40006FF01803584301EB800006EBC000B0FBB6
:101D5000F5F000F0F80002EB4002B1FBF5F058435B
:101D600001EB800006EBC000B0FBF5F000F00700CF
:101D7000D6E7000000100140001401402DE9F041B9
:101D8000984617460E460446069D27E0681C25D057
:101D90002DB1FEF7C1FBA0EB0800A8421ED92068B8
:101DA0000C3050E8001F21F4D07140E80012002AE6
:101DB000F5D12068143050E8001F21F0010140E8FF
:101DC0000012002AF5D1202084F83D0084F83E005E
:101DD000002084F83C000320BDE8F0812068006802
:101DE00036EA000004D00020B842CFD00020F3E74C
:101DF0000120F9E7FEE700000FB4054B10B503A979
:101E0000044A029800F028F810BC5DF814FB0000AA
:101E1000B1220008100000200907090E002804DB89
:101E200000F1E02080F80014704700F00F0000F18E
:101E3000E02080F8141D704702E008C8121F08C196
:101E4000002AFAD170477047002001E001C1121F3B
:101E5000002AFBD1704700002DE9FF4F8DB00F46DF
:101E60000546002606E025280BD0DDE90F12904735
:101E70006D1C761C28780028F5D111B03046BDE8DD
:101E8000F08F0024A246A1460122E94900E0044364
:101E900015F8013F203B02FA03F00842F7D12878F9
:101EA0002A2810D06FF02F022878A0F130010929DC
:101EB00014D80AEB8A0102EB410144F0020400EB62
:101EC000010A6D1CF0E701CF5FEA000A03D544F474
:101ED0000054CAF1000A44F002046D1C28782E2830
:101EE00017D115F8010F44F004042A280ED06FF022
:101EF0002F022878A0F1300109290AD809EB8901BD
:101F000002EB410100EB01096D1CF2E757F8049B5D
:101F10006D1C28786C280FD006DC4C2817D0682858
:101F20000DD06A2814D104E0742810D07A280FD17B
:101F30000DE044F400140AE044F4801401E044F499
:101F400040146978814202D104F580146D1C6D1C27
:101F500028786E281ED00CDC632830D004DC0028E2
:101F60008BD0582811D19FE0642867D069280CD104
:101F700064E073282DD004DC6F2872D0702804D15F
:101F800094E075286ED078286DD0DDE90F12904767
:101F9000761C4BE1C4F30250022806D0032809D076
:101FA000042801CF09D0066040E101CFF117C0E954
:101FB00000613BE101CF068038E1067036E117F899
:101FC000040B8DF8000000208DF80100EB46012085
:101FD00003E057F804BB4FF0FF3061074FF00001FA
:101FE00002D40DE008F10101884649450FDA804529
:101FF000F8DB1BF808100029F4D108E008F1010112
:1020000088468142FADB1BF808100029F6D1DDE989
:102010000F23AAEB08008146214600F031F9304435
:1020200000EB080604E0DDE90F121BF8010B9047F6
:10203000B8F10108F7D221464846F2E00A21C4F37C
:1020400002524FF0000B0891022A04D001CFC117B1
:10205000032A09D00AE0FF1D27F00707F7E802016D
:1020600008E02CE01EE01FE000B2C117042A01D1F5
:1020700040B2C117021E71F1000206DA0023D0EB54
:10208000030063EB01012D2202E0220504D52B227F
:102090008DF82420012203E0E20701D02022F7E797
:1020A000904653E00A210BE0102109E010214FF087
:1020B000000B44F004044FF00809089103E00821E4
:1020C0004FF0000B0891C4F30252022A04D001CF52
:1020D0000021032A06D006E0FF1D27F00707F7E8D6
:1020E000020103E080B2042A00D1C0B24FF0000820
:1020F00022072BD52A78702A07D0DDF820C08CF073
:10210000100C5CEA0B0C05D00EE040228DF8242068
:10211000012208E050EA010306D030238DF8243074
:102120008DF8252002229046089B83F0080353EA8D
:102130000B030BD150EA010201D1620706D5302210
:102140008DF824204FF00108A9F101092A78582AB6
:1021500004D038A20B9208AA0A920BE03AA2F9E73F
:102160005B46089AFEF740F80B9B9B5C0A9A521E4E
:102170000A92137050EA0102F2D10A98ADEB000006
:1021800000F1200B600702D524F4803401E04FF009
:102190000109D94502DDA9EB0B0000E0002000EBAE
:1021A0000B0141440890AAEB010AE00306D4DDE9E3
:1021B0000F232146504600F063F806444FF0000913
:1021C00008E009A911F80900DDE90F12904709F1AB
:1021D0000109761CC145F4DBE0030CD5DDE90F23D2
:1021E0002146504600F04CF8064404E0DDE90F12A9
:1021F00030209047761C0899481E08900029F5DC8D
:1022000008E00A980A990078491C0A91DDE90F1242
:102210009047761CBBF10001ABF1010BF1DC2146CC
:102220005046DDE90F2300F019F806446D1C21E645
:10223000092801003031323334353637383961629C
:102240006364656600000000303132333435363760
:102250003839414243444546000000002DE9F04131
:10226000044600251E461746880404D405E0394676
:102270002020B0476D1C641EF9D52846BDE8F081CA
:102280002DE9F041044600251E469046C80301D5BD
:10229000302700E02027880404D505E04146384671
:1022A000B0476D1C641EF9D52846BDE8F0810000DA
:1022B00013B54FF47A73012269460248FFF79AF882
:1022C00000981CBD68020020FEF7BAFCFFF778FCFE
:1022D000FFF7EEFBFFF724FCFFF750FC10A0FFF721
:1022E0008BFDFFF741FA4FF48061124C4D008E00D8
:1022F00001280ED000222046FEF708F901222946C7
:102300002046FEF703F9012231462046FEF7FEF88B
:10231000FEE701222046FEF7F9F80022EFE7000071
:1023200053544D3332204932432054455354210AEB
:1023300000000000001C024000000000000000003F
:10234000010203040607080900000000010203045B
:10235000702300080000002014000000381E000850
:1023600084230008140000209C060000481E00087A
:102370000100000010000000000000000024F40034
:042380000000000059
:04000005080001AD41
:00000001FF
